:10000000C00C0010DD130000DD130000DD13000044
:10001000DD130000DD130000DD130000DD13000020
:10002000DD130000DD130000DD130000DD13000010
:10003000DD130000DD130000DD1300004914000093
:10004000DD130000DD130000DD130000DD130000F0
:10005000DD130000DD130000DD130000DD130000E0
:10006000DD130000DD130000DD130000DD130000D0
:10007000DD130000DD130000ED090000DD130000BA
:10008000890A0000DD130000DD130000DD1300000D
:10009000D1100000E9030000DD130000DD130000B3
:1000A000DD130000DD130000DD130000DD13000090
:1000B000DD130000DD130000DD130000590900000E
:1000C000535445524E2050696E62616C6C20446FEF
:1000D00074204D617472697820447269766572008B
:1000E0000000000000000000000000000000000010
:1000F0000000000000000000000000000000000000
:1001000000000000000000000000000000000000EF
:1001100000000000000000000000000000000000DF
:1002F00000000000000000000000000021436587AE
:1003000080B500AF0E4B1A6880218A431A60002224
:100310000C4B1A600C4B1A6001221A6043220B4BE3
:100320001A600B4901220B681A42FCD00322094BC8
:100330001A60094B00221A6001221A60BD4680BD76
:1003400038820440408004404480044008800440D7
:100350000C8004407080044074800440F0B547462F
:1003600080B400AF1C4B1A6802218A431A601B4BF1
:1003700019784A1C7F2422405B78934203D0174BA4
:10038000591808711A70164B1B6898061AD5134A2B
:10039000537812789A4215D0104A124E7F25104C8D
:1003A000202188469446D3181B7933605378013353
:1003B0002B40537021684046084203D060460178C4
:1003C0009942F0D1044B196802220A431A60BD46D3
:1003D00004BC9046F0BDC046048000400000001000
:1003E0001480004000800040F0B55F4656464D4600
:1003F0004446F0B400AF2F488146FF2188462E4B7B
:100400009B469A461A1C9C4644E00340042B0DD0A0
:100410000C2B0BD0022B3FD1284B1B689C062FD5F1
:1004200055466B782978994217D12EE0234B1B68EB
:100430001A2119420ED1224B1C68224801794B1C0B
:100440000F2003401F4D6879984223D069180C7221
:100450002B711FE01A4B1B681CE0194D7F241748B5
:10046000D3181B792B6053780133234053700668EF
:100470002021314204D061460E789E4205D0EFE73C
:100480005B4659781B78994204D10F4B19680220BA
:100490008143196001210E204C46236845462B40BC
:1004A0001942B2D0BD463CBC90469946A246AB46E6
:1004B000F0BDC046088000400000001014800040DD
:1004C00000800040800000100480004080B500AF34
:1004D0000D4B1A6801218A431A600C4A537912792C
:1004E0009A4207D0094AD118087A01330F210B40EC
:1004F000537101E001204042034B196801220A4375
:100500001A60BD4680BDC0460480004080000010D7
:1005100098B500AF041E0A2C02D10D20FFF71EFF74
:10052000E0B2FFF71BFF0020BD4698BDF0B547467F
:1005300080B48AB000AF8046204A3B1C31CA31C328
:1005400013CA13C323CA23C312681A604246002A7F
:1005500024DA2D20FFF7DCFF43465B4298461DE07E
:10056000191C01321B1A0029FADA4018804660462D
:10057000002803D0012A01D1092C04D1101C2F30EE
:10058000FFF7C6FFB446013404350A2C10D04146AB
:10059000002909DB28680B1A321CE1E73D1C002406
:1005A000012294460026F2E72B689844321CE5E7C6
:1005B000BD460AB004BC9046F0BDC046D014000051
:1005C00098B500AF041C0078002805D00134FFF76F
:1005D0009FFF20780028F9D1BD4698BD80B500AFB7
:1005E000FFF7EEFF0A20FFF793FF0020BD4680BD16
:1005F000F0B583B002AF214B00241C705C70204B1F
:100600001C715C710094012007210122022300F07B
:10061000A7FB0094012006210122002300F0A0FB8B
:10062000184B1968802252010A431A600121164BA7
:100630001960164B1A68802002431A601A25144A62
:100640001560144A14601026134D2E601D688543F2
:100650001D60124D296003251D60114B1C60114B5C
:100660001C60114B186013681943116080229203BB
:100670000E4B1A60BD4601B0F0BDC0460000001030
:100680008000001080800440988004400C8000406E
:100690000080004004800040288000400880004026
:1006A00010800040208000403080004000E100E0E9
:1006B00090B500AF00221368002BFCD0094B1B78CB
:1006C0008B4206D0084C102223681A42FCD1054BFD
:1006D00019704B1E99414942044B1960044B186034
:1006E000BD4690BD980000100C80054000020250ED
:1006F0000880054080B500AF0021FFF7D9FFBD4657
:1007000080BDC04690B500AF094B1A681C1C191C6F
:1007100005E00B689A42FCD00138054B1A680028A6
:1007200003D023689A42F7D1F3E7BD4690BDC04697
:10073000BC080010F0B557464E464546E0B400AF41
:10074000844691461B4B1B78002082469B021A4A26
:10075000D218904624E001239C444D1CEDB20F2991
:1007600016D84846032813D802015218D20092B274
:10077000F600124B9E195346F15CD418A4B24444BF
:10078000217181208000241821700133082BF3D1BE
:100790000F2D04D94B460133DBB299465546291C2F
:1007A00062461678002ED6D1BD461CBC90469946AE
:1007B000A246F0BDAC08001098000010141500000F
:1007C00080B500AF044B1A6801321A600122524210
:1007D000024B1A60BD4680BDB408001000040050F2
:1007E000F0B500AF0D4B1B780D4E04369B028020F8
:1007F00080001A18B218F61800230A4D8024A400AD
:1008000059190878F054802080000918097811706F
:1008100001330132A342F3D1BD46F0BDAC08001054
:10082000980000101C1C0000F0B55F4656464D466F
:100830004446F0B483B000AF0A280ED03E4B1B787C
:100840009B023E4A0432D218934600239846012464
:10085000A24685003A4EAD1955E00120FFF7C0FFD2
:100860005FE0062831D82C68A746002630E0012931
:1008700006D0002902D0022907D028E0002627E070
:100880005E425E417642F6B222E01E1C741EA64114
:100890007642F6B21CE0664654460C4218D07C689C
:1008A000E6B215E0664654460C4211D17C68E6B2C9
:1008B0000EE05E425E417642F6B209E05E1E341CF6
:1008C000664266417642F6B202E0FF2600E0FF266D
:1008D00016700133DBB28026B6009219022BC0D10C
:1008E0003C680131C9B28034042903D0221C0023A2
:1008F0003C60B6E743460133DBB2984601239B4494
:100900004446802C0DD05C4600214346DE0801237E
:100910005E4053461E407642F6B2B446F6437E60D1
:10092000E4E7FFF74DFFBD4603B03CBC9046994657
:10093000A246AB46F0BDC046AC08001098000010BF
:10094000F814000080B500AF0022024B9A80BD462B
:1009500080BDC0469808001080B500AF0222034B4E
:100960001A600022024B9A80BD4680BD1C80005058
:1009700098080010F0B5474680B400AF154B1878C2
:10098000154E0425154B9846154C8002154B18182A
:10099000154B9C4615E043461968A388C21811718F
:1009A0009A1C92B2A28001339BB2C318090A197132
:1009B000624506D9FFF704FF0022094B9A80012007
:1009C00003E033681D42E6D10020BD4604BC9046DA
:1009D000F0BDC046AC0800100C0004400800044004
:1009E0009808001098000010FF030000F0B54F4673
:1009F0004646C0B400AF1D4B9B68002B2BD0012294
:100A000052421B4B1A601B4B1B6898071FD5174B94
:100A10009B68002B1FD0184A9446144B174E184D54
:100A2000144C0220814662461178DA68501CD86066
:100A3000890271188A1812792A609A68013A9A60B4
:100A400021684846084202D0002AECD103E0074B57
:100A50009B68002B04D10B4B1A6808218A431A604B
:100A6000BD460CBC90469946F0BDC04698080010A3
:100A7000000202500C800540B808001098000010D9
:100A80000880054014800540F8B500AF01222B4BCB
:100A90001A602B4B1B7C002B3CD11422294B1A6073
:100AA000274C657C680140231843C0B2FFF722FE43
:100AB000A37C013303221340A37413D10135012316
:100AC0001D401F4B5D740DD11F4B1B68002B09D0BF
:100AD0001E4B1A781E490A7051424A411A70002270
:100AE000194B1A60164CA57C667CB2005219194B42
:100AF000D05CB0231843FFF7FDFD1020FFF7FAFD8F
:100B00000020FFF7F7FD7602ED017519E5608023FF
:100B1000A3600CE00A4B5B7C5B000E4AD3181A8979
:100B2000084B1A600C4B196808220A431A60044BE0
:100B30001A7C51424A411A74BD46F8BD00C00040BB
:100B40009808001018C0004000040050AC080010C5
:100B5000B80800102019000014800540F0B54F4679
:100B60004646C0B489B002AF381C0C30654B021C3D
:100B700032CB32C200243C607C6001253D700823EA
:100B80007B701823BB6000F005FB00940020082157
:100B90000022022300F0E4F85B4B1C705B4B1D70DD
:100BA0005B4B1C605B4B1C60381C00F0F3FA00943C
:100BB000022007210022022300F0D2F80094022034
:100BC00008210022022300F0CBF800940120092123
:100BD0000022022300F0C4F8012676424E4B1E602C
:100BE0004E4B196880220A431A6030224C4B1A601F
:100BF00003224C4B1A604C4B1C604C4A4C4B1A6005
:100C00004C4B1C604C4B1D604C4D80235B022B6099
:100C10000094002001210022002300F0A1F8484A9E
:100C20001168022399431160464A11689943116083
:100C3000454A116899431160444A11680B43136097
:100C400080231B062B60424D2C600020FFF75AFDCD
:100C50002E600020FFF756FDA720FFF74BFDAE20CA
:100C6000FFF748FDC020FFF745FDA220FFF742FD3A
:100C70002F20FFF73FFD2120FFF73CFD8120FFF7EC
:100C800039FD1F20FFF736FD4020FFF733FDAF2071
:100C9000FFF730FD00252F498946FF229046502658
:100CA000764243462B404C46E05C3043C0B2FFF7EF
:100CB00021FD1020FFF71EFD0020FFF71BFD802403
:100CC00000200121FFF7F4FC013C002CF8D1013594
:100CD000082DE6D100232049043100228024E400BD
:100CE0005A54C8188025ED00401902700133A34200
:100CF000F6D10022194B1A60BD4607B00CBC9046D5
:100D00009946F0BD14190000B8080010AC08001096
:100D1000B4080010B00800100008015080800440A2
:100D20000CC0004014C000403CC000405905000009
:100D300018C0004070C0004004C0004000E100E066
:100D400004800050088000500C800050108000503B
:100D50000004025020190000980000100004005008
:100D6000F0B500AF032830D80B292ED845002D1838
:100D7000AD006D18AD00164C2C59002C25D0C025A7
:100D80002A437E69F5002A432260002B08D1000423
:100D9000104A8018036801228A409343036014E0DC
:100DA0000004A026F60585198C1C0122161CA640FD
:100DB000AC19013B5D1EAB415B422360054BC01883
:100DC00003688A40111C19430160BD46F0BDC0464E
:100DD0002C1900000080005080B500AF034B1A684A
:100DE00003490A431A60BD4680BDC0468080044066
:100DF0004000010080B500AF0E48FFF7E1FB00F0B6
:100E000047FBFFF7DDFB0C48FFF7DAFB0020FFF79D
:100E10008DFB2E20FFF77CFB0020FFF787FB2E20A9
:100E2000FFF776FB0220FFF781FB0448FFF7D6FBB4
:100E3000BD4680BDD01B0000D41B0000E01B00009D
:100E4000F0B55F4656464D464446F0B493B000AF09
:100E5000FFF7C2FFFFF754FA00F000FB8E4B1A6851
:100E60000A3219688A42FCD1FFF7C2FBFFF776FE0F
:100E7000FFF7C0FF0022924600250024A04600266E
:100E8000864B9946864A934603E000239A460025FE
:100E90000024FFF76FFD002800D0824CFFF716FBFF
:100EA000002800DABEE04246002A1ED00A2801D0FF
:100EB0000D2803D110360F239E43B3E003280DD134
:100EC0003C1D00224023E254201C0021FFF732FC8D
:100ED000FFF776FC201CFFF781FBCAE0402E00D90B
:100EE000A0E03B1D985501369CE0782800D999E098
:100EF00080004A4613589F460020FFF795FCB8E053
:100F00000120FFF791FCB4E00220FFF78DFCB0E078
:100F10000320FFF789FCACE00420FFF785FCA8E084
:100F20000520FFF781FCA4E00620FFF77DFCA0E090
:100F30000720FFF779FC9CE00820FFF775FC98E09C
:100F40000920FFF771FC94E00A20FFF76DFC564B77
:100F50001B680024002B9CD191E0534B1B6872202E
:100F6000002B00D06220FFF7D3FA5BE0FFF742FFCF
:100F700058E00020FFF7DAFA5F20FFF7C9FA0020F7
:100F8000FFF7D4FA5F20FFF7C3FA0220FFF7CEFA8B
:100F90000A20FFF7BDFA45E04448FFF711FB5B4626
:100FA0001868FFF7C3FA4248FFF70AFB414B18687D
:100FB000FFF7BCFA4048FFF703FB404B1878FFF7F8
:100FC000B5FA3F48FFF7FCFA3E4B1878FFF7AEFA48
:100FD0003D48FFF7F5FA344B1868431E9841FFF778
:100FE000A5FA0A20FFF794FA1CE0384B1868434230
:100FF00058415E30FFF78CFA14E0FFF7A3FC11E0D4
:10100000FFF7DEFB0EE03B1D391C453120221A7034
:1010100001338B42FBD102E0FFF7A0FD02E0012289
:1010200090460026204B1B68002B00D031E723B2EE
:10103000002B00DA2DE7A0B2FFF7D2FBFFF7C0FBD1
:101040000135ADB22BB2022B00DC22E723B2682BB4
:1010500005DC00E000240134A4B2002519E7534662
:1010600001339BB29A461BB2142B00D10DE7002529
:101070000FE70D4B1B68002398460A4C09E7002038
:10108000FFF7AEFBFFF79CFB0135ADB22BB200249E
:10109000022B00DCFDE6DDE7BC080010EC190000C7
:1010A000B4080010FFFF000000040050041C000002
:1010B000081C0000B00800100C1C0000B80800104C
:1010C000101C0000AC080010141C000008000050A8
:1010D00080B500AF064B1B68DA0706D50122054B29
:1010E0001A60054B1A6801321A60BD4680BDC046C1
:1010F0001C00044020000440B008001090B583B0EC
:1011000002AF002820D102240094022100220023F3
:10111000FFF726FE00940020062100220023FFF79F
:101120001FFE00940020082100220023FFF718FE74
:1011300000940020092100220023FFF711FE8022E5
:101140005203134B1A6020E0022400940220002175
:1011500000220023FFF704FE009402200121002258
:101160000023FFF7FDFD009402200221002200234E
:10117000FFF7F6FD00940220032100220023FFF771
:10118000EFFD8022D201024B1A60BD4601B090BD36
:1011900080E100E0B0B582B002AF041C4378043BAC
:1011A00000200C2B00D903E12378002B08D1814BC0
:1011B000196801229143196019680A431A6007E00F
:1011C0007C4B196804229143196019680A431A601C
:1011D0002378002B2AD10222774B1A600025009534
:1011E0000020022101220023FFF7BAFD0095002014
:1011F000062102220023FFF7B3FD009500200821FD
:1012000001220023FFF7ACFD0095002009210122F7
:101210000023FFF7A5FD694B1968802212010A43DC
:101220001A6080225203664B1A6026E00025009562
:101230000220002102220023FFF792FD00950220E8
:10124000012102220023FFF78BFD009502200221DD
:1012500002220023FFF784FD0095022003210222D1
:101260000023FFF77DFD554B19688022D2020A4307
:101270001A608022D201524B1A60A368002B0AD058
:101280005B080121FF2B0CD94E4A934206D8190A5C
:1012900080235B0005E00123022102E080235B0044
:1012A0007F212278D200484812180120106022784D
:1012B00050008218D2034548121849001160227864
:1012C00051008A18D20342495218A07880016178EF
:1012D00001390843E178C9010843013B1902031CA5
:1012E0000B43136023785A00D318DB03394A9B1849
:1012F0001A6802218A431A60A368002B0AD0237857
:101300005A00D318DB0333481B181A6804218A4398
:101310001A6021E023785A00D318DB032D495B18AB
:10132000196804220A431A602379002B0AD0237813
:101330005A00D318DB03274A9B181A6808218A43EE
:101340001A6009E023785A00D318DB0321481B18E0
:10135000196808220A431A606379002B07D02378A2
:101360005A00D318DB031C495B1808221A60A379C2
:10137000002B07D023785A00D318DB03164A9B189A
:1013800006221A60E379002B07D023785A00D3187D
:10139000DB0311481B1801221A6023785A00D31866
:1013A000DB030C495B18196802220A431A6001200A
:1013B000BD46B0BD04800440B0400440808004407D
:1013C00000E100E0FF7E0000948004401000044033
:1013D00000000440040004401400044098B500AF2D
:1013E000134B144A9A420DD0134B1148C01A80086F
:1013F000013080000023111C104AD458CC50043313
:101400008342FAD10E4B0F4A9A420AD0131C04327F
:101410000B49891A890889005118002204C38B429C
:10142000FCD100200021FFF70BFDBD4698BDC04652
:1014300000000010000000100400001070200000E8
:10144000C00800100000001080B500AF024B1A6801
:1014500001321A60BD4680BDBC08001080B500AFE7
:101460000722064B1A60064A064B1A600023064AFA
:101470001360064A1360BD4680BDC04610E000E020
:10148000FF52070014E000E018E000E0BC08001084
:1014900080B500AF0148BD4680BDC0461C2000009D
:1014A00080B500AF0148BD4680BDC0464C2000005D
:1014B00080B500AF0148BD4680BDC0465420000045
:1014C00080B500AF0148BD4680BDC0466420000025
:1014D00000CA9A3B00E1F5058096980040420F0053
:1014E000A086010010270000E8030000640000004F
:1014F0000A000000010000006A0800006E080000F9
:1015000096080000A40800006A080000B208000065
:10151000BC0800000000000000000000003E415533
:101520004355413E003E7F6B7D6B7F3E00387C3EE5
:101530001F3E7C3800081C3E7F3E1C0800081C290A
:101540007F291C0800081C3D7F3D1C0800001C3E34
:101550003E3E1C00FFFFE3C1C1C1E3FF00001C22AF
:1015600022221C00FFFFE3DDDDDDE3FF00060909A9
:101570004E50607800002629792926000003077E56
:10158000402000000003073E60464E7C00082A1CF5
:10159000771C2A08007F7F3E3E1C1C0800081C1C8C
:1015A0003E3E7F7F000014227F221400007B7B00E0
:1015B000007B7B0000307848487F407F001229255F
:1015C000524A2400000707070707070700001523F2
:1015D0007F2315000008183F7F3F180800080C7E85
:1015E0007F7E0C08001C1C1C7F3E1C0800081C3E53
:1015F0007F1C1C1C001F1F1F0303030300081C2A61
:10160000082A1C0800030F3F7F3F0F030060787E0D
:101610007F7E786000000000000000000000307D48
:101620007D300000000060700070600000147F7F5B
:10163000147F7F140000122A6B2A24000062660CBB
:101640001833230000267F515977230500000878BE
:10165000700000000000001C3E6341000041633E3A
:101660001C00000000082A3E1C3E2A080000080852
:101670003E08080000010F0E0000000000000808EE
:101680000808000000030300000000000002060C30
:1016900018302000003E7F49517F3E000001117F3D
:1016A0007F01010000236745497931000022634929
:1016B000497F3600000C14247F7F040000727351B0
:1016C000515F4E00003E7F49496F26000060604731
:1016D0005F78600000367F49497F360000327B49E1
:1016E000497F3E0000000036360000000000013750
:1016F000360000000000081C36634100000014148E
:1017000014140000004163361C0800000020604DE6
:101710004D783000003C425A5A320400003F7F4866
:10172000487F3F00007F7F49497F3600003E7F4170
:1017300041632200007F7F41417F3E00007F7F495F
:1017400049494100007F7F4848484000003E7F41B2
:1017500045672600007F7F08087F7F000000417FEB
:101760007F410000000607417F7E4000007F7F1C14
:1017700036634100007F7F0101010100007F7F305F
:1017800018307F7F007F7F30180C7F7F003E7F41C5
:10179000417F3E00007F7F44447C3800003C7E4215
:1017A000467F3D00007F7F4C4E7B310000327B49FD
:1017B000496F26000060407F7F406000007E7F010F
:1017C000017F7F00007C7E03037E7C00007F7F061C
:1017D0000C067F7F0063771C081C77630070780F0E
:1017E0000F7870000043474D597161000000007F81
:1017F0007F414100002030180C0602000041417F6B
:101800007F000000000810204020100800010101A6
:1018100001010101000000006070100000021715B6
:10182000151F0F00007F7F09090F0600000E1F1112
:10183000111B0A0000060F09097F7F00000E1F150B
:10184000151D0C0000043F7F4464200000183D2556
:10185000253F3E00007F7F08080F07000000012F92
:101860002F010000000607015F5E0000007F7F047B
:101870000E1B11000000007F7F000000001F1F0CE6
:10188000070C1F1F001F1F18181F0F00000E1F112D
:10189000111F0E00003F3F24243C180000183C2478
:1018A0003F3F0103001F1F10101C0C0000091515FD
:1018B000151512000008083F3F080800001E1F0110
:1018C000011F1F00000C0E03030E0C00001E1F0161
:1018D0000F011F1E00111B0E0E1B110000181D050D
:1018E000051F1E00000013171D1900000000083E10
:1018F0007741410000000077770000000041417708
:101900003E0800000008181018081000000F1931D8
:101910006131190F001000010000000100000000FB
:1019200003020100070605045905C50A0C400440DE
:10193000104004401C4004402C400440304004400F
:10194000344004404C400440504004406040044057
:1019500064400440684004407440044078400440BF
:101960007C40044080400440904004409440044047
:10197000A0400440A4400440A84004401440044057
:10198000384004406C400440984004400840044003
:10199000284004405C4004408C40044040400440E7
:1019A000444004400040044020400440244004409F
:1019B0005440044058400440704004408440044077
:1019C000884004409C400440AC4004403C400440FB
:1019D000484004400000000000000000000000003B
:1019E00000000000000000000000000024100000C3
:1019F0002410000006100000241000002410000035
:101A00002410000024100000241000002410000006
:101A100024100000241000002410000024100000F6
:101A200024100000241000002410000024100000E6
:101A300024100000241000002410000024100000D6
:101A400024100000241000002410000024100000C6
:101A500024100000241000002410000024100000B6
:101A600024100000241000002410000024100000A6
:101A70002410000024100000980F00002410000023
:101A80002410000024100000241000002410000086
:101A90002410000024100000241000002410000076
:101AA000241000002410000024100000F80E000094
:101AB000000F0000080F0000100F0000180F0000BA
:101AC000200F0000280F0000300F0000380F00002A
:101AD000400F00002410000024100000241000001B
:101AE00024100000241000005A0F000024100000F1
:101AF0002410000024100000241000002410000016
:101B00002410000024100000241000002410000005
:101B100024100000241000002410000024100000F5
:101B200024100000241000002410000024100000E5
:101B300024100000241000002410000024100000D5
:101B400024100000241000002410000024100000C5
:101B500024100000241000002410000024100000B5
:101B600024100000241000002410000024100000A5
:101B70002410000024100000241000002410000095
:101B800024100000001000002410000024100000A9
:101B90006C0F00002410000024100000480F00000B
:101BA0002410000024100000241000002410000065
:101BB00024100000EA0F0000FA0F000024100000BB
:101BC00024100000720F0000241000001810000004
:101BD0000A0A0000202076657273696F6E3A200051
:101BE0000A20206275696C6420646174653A204142
:101BF000756720203920323031362031323A303783
:101C00003A333800663A000020653A0020623A0014
:101C10002F0000002C20623A00000000FF808F9F00
:101C2000BFBFBFBFBEBCBCBCBCBCBCBCBCBCBEBFE1
:101C3000BFBFBF9F8F8080BCBCBCBCBCBCBCBCBF9A
:101C4000BFBFBFBFBFBFBCBCBCBCBCBCBCBC80803A
:101C5000BFBFBFBFBFBFBCBCBCBCBCBCBCBCBCBCB2
:101C6000BCBCBCBCBCBCBC8080BFBFBFBFBFBFBC1A
:101C7000BCBCBCBCBCBCBCBCBCBEBFBFBFBF9F8FE0
:101C80008080BFBFBFBFBFBFBF9F8F878381808062
:101C900080808080BFBFBFBFBFBF80FFFF00E3F376
:101CA000FBFBFBFBF97878787878787878787D7F1B
:101CB0007F7F7F3F1F00000000000000000000FF4A
:101CC000FFFFFFFFFFFF000000000000000000001A
:101CD000FFFFFFFFFFFF787878787878787878785A
:101CE000787800000000000000FFFFFFFFFFFF1EEC
:101CF0001E1E1E1E1E1E1E1E1E3FFFFFFFFFF7E3C1
:101D00000000FFFFFFFFFFFF80C0E0F0F8FCFE7F58
:101D10003F1F0F07FFFFFFFFFFFF00FFFF07C4E4A8
:101D2000F4F4F4F4F4F4F4F4F4F4F4F4F4F6F7F76B
:101D3000F7F4F4E4C404040707070704040404F4F4
:101D4000F4F4F6F7F7F7040404040404070707049F
:101D5000F4F4F4F4F4F4F4F4F4F4F4F4F4F4F6F73E
:101D6000F7F7F7F7F7F6F40404F4F4F4F4F4F404F2
:101D700006070707070707040404F4F4F4F7F7F766
:101D80000707F7F7F7F7F7F7070704040404040455
:101D900087C7E7F7F7F7F7F7F7F707FFFFFF010147
:101DA00001010101CFCFCFCF0F0F0F0F0F1FFFFF8B
:101DB000FF010101010101FFFFFFFF01010101011D
:101DC000011F0F0783C1010101010101FFFFFF0195
:101DD000010101010199999999010101010143FF53
:101DE000FFFFF9E1810101010727E7E7270701016B
:101DF0000181E1F9FFFFFF010101010101F9F9F999
:101E0000F9F9F9F9F9F9F9FFFFFF01010101010100
:101E1000F9F9F9F9F9F9F9F9F9F9FFFFFF808F9F5D
:101E2000BFBFBFBFBEBCBCBCBCBCBCBCBCBCBEBFDF
:101E3000BFBFBF9F8F8080BCBCBCBCBCBCBCBCBF98
:101E4000BFBFBFBFBFBFBCBCBCBCBCBCBCBC808038
:101E5000BFBFBFBFBFBFBCBCBCBCBCBCBCBCBCBCB0
:101E6000BCBCBCBCBCBCBC8080BFBFBFBFBFBFBC18
:101E7000BCBCBCBCBCBCBCBCBCBEBFBFBFBF9F8FDE
:101E80008080BFBFBFBFBFBFBF9F8F878381808060
:101E900080808080BFBFBFBFBFBF80FFFF00E3F374
:101EA000FBFBFBFBF97878787878787878787D7F19
:101EB0007F7F7F3F1F00000000000000000000FF48
:101EC000FFFFFFFFFFFF0000000000000000000018
:101ED000FFFFFFFFFFFF7878787878787878787858
:101EE000787800000000000000FFFFFFFFFFFF1EEA
:101EF0001E1E1E1E1E1E1E1E1E3FFFFFFFFFF7E3BF
:101F00000000FFFFFFFFFFFF80C0E0F0F8FCFE7F56
:101F10003F1F0F07FFFFFFFFFFFF00FFFF07C4E4A6
:101F2000F4F4F4F4F4F4F4F4F4F4F4F4F4F6F7F769
:101F3000F7F4F4E4C404040707070704040404F4F2
:101F4000F4F4F6F7F7F7040404040404070707049D
:101F5000F4F4F4F4F4F4F4F4F4F4F4F4F4F4F6F73C
:101F6000F7F7F7F7F7F6F40404F4F4F4F4F4F404F0
:101F700006070707070707040404F4F4F4F7F7F764
:101F80000707F7F7F7F7F7F7070704040404040453
:101F900087C7E7F7F7F7F7F7F7F707FFFFFF010145
:101FA00001010101CFCFCFCF0F0F0F0F0F1FFFFF89
:101FB000FF010101010101FFFFFFFF01010101011B
:101FC000011F0F0783C1010101010101FFFFFF0193
:101FD000010101010199999999010101010143FF51
:101FE000FFFFF9E1810101010727E7E72707010169
:101FF0000181E1F9FFFFFF010101010101F9F9F997
:10200000F9F9F9F9F9F9F9FFFFFF010101010101FE
:10201000F9F9F9F9F9F9F9F9F9F9FFFF537465726A
:102020006E2050696E62616C6C204E6F6465204456
:102030006F74204D617472697820446973706C61AB
:10204000792044726976657200000000302E302ECF
:1020500032000000224175672020392032303136AD
:10206000220000002231323A30373A333822000061
:00000001FF
