:10000000B0140010D9120000D9120000D91200005B
:10001000D9120000D9120000D9120000D912000034
:10002000D9120000D9120000D9120000D912000024
:10003000D9120000D9120000D912000045130000A7
:10004000D9120000D9120000D9120000D912000004
:10005000D9120000D9120000D9120000D9120000F4
:10006000D9120000D9120000D9120000D9120000E4
:10007000D9120000D9120000F10F0000D9120000BF
:10008000090A0000D9120000D9120000D91200009C
:10009000C50F0000E9030000D9120000D9120000CA
:1000A000D9120000D9120000D9120000D9120000A4
:1000B000D9120000D9120000D9120000690900000D
:1000C000535445524E2050696E62616C6C20446FEF
:1000D00074204D617472697820447269766572008B
:1000E0000000000000000000000000000000000010
:1000F0000000000000000000000000000000000000
:1001000000000000000000000000000000000000EF
:1001100000000000000000000000000000000000DF
:1002F00000000000000000000000000021436587AE
:1003000080B500AF0E4B1A6880218A431A60002224
:100310000C4B1A600C4B1A6001221A6043220B4BE3
:100320001A600B4901220B681A42FCD00322094BC8
:100330001A60094B00221A6001221A60BD4680BD76
:1003400038820440408004404480044008800440D7
:100350000C8004407080044074800440F0B547462F
:1003600080B400AF1C4B1A6802218A431A601B4BF1
:1003700019784A1C7F2422405B78934203D0174BA4
:10038000591808711A70164B1B6898061AD5134A2B
:10039000537812789A4215D0104A124E7F25104C8D
:1003A000202188469446D3181B7933605378013353
:1003B0002B40537021684046084203D060460178C4
:1003C0009942F0D1044B196802220A431A60BD46D3
:1003D00004BC9046F0BDC046048000400000001000
:1003E0001480004000800040F0B55F4656464D4600
:1003F0004446F0B400AF2F488146FF2188462E4B7B
:100400009B469A461A1C9C4644E00340042B0DD0A0
:100410000C2B0BD0022B3FD1284B1B689C062FD5F1
:1004200055466B782978994217D12EE0234B1B68EB
:100430001A2119420ED1224B1C68224801794B1C0B
:100440000F2003401F4D6879984223D069180C7221
:100450002B711FE01A4B1B681CE0194D7F241748B5
:10046000D3181B792B6053780133234053700668EF
:100470002021314204D061460E789E4205D0EFE73C
:100480005B4659781B78994204D10F4B19680220BA
:100490008143196001210E204C46236845462B40BC
:1004A0001942B2D0BD463CBC90469946A246AB46E6
:1004B000F0BDC046088000400000001014800040DD
:1004C00000800040800000100480004080B500AF34
:1004D0000D4B1A6801218A431A600C4A537912792C
:1004E0009A4207D0094AD118087A01330F210B40EC
:1004F000537101E001204042034B196801220A4375
:100500001A60BD4680BDC0460480004080000010D7
:1005100098B500AF041E0A2C02D10D20FFF71EFF74
:10052000E0B2FFF71BFF0020BD4698BDF0B547467F
:1005300080B48AB000AF8046204A3B1C31CA31C328
:1005400013CA13C323CA23C312681A604246002A7F
:1005500024DA2D20FFF7DCFF43465B4298461DE07E
:10056000191C01321B1A0029FADA4018804660462D
:10057000002803D0012A01D1092C04D1101C2F30EE
:10058000FFF7C6FFB446013404350A2C10D04146AB
:10059000002909DB28680B1A321CE1E73D1C002406
:1005A000012294460026F2E72B689844321CE5E7C6
:1005B000BD460AB004BC9046F0BDC046CC13000056
:1005C00098B500AF041C0078002805D00134FFF76F
:1005D0009FFF20780028F9D1BD4698BD80B500AFB7
:1005E000FFF7EEFF0A20FFF793FF0020BD4680BD16
:1005F000F0B583B002AF214B00241C705C70204B1F
:100600001C715C710094012007210122022300F07B
:1006100071FB0094012006210122002300F06AFBF7
:10062000184B1968802252010A431A600121164BA7
:100630001960164B1A68802002431A601A25144A62
:100640001560144A14601026134D2E601D688543F2
:100650001D60124D296003251D60114B1C60114B5C
:100660001C60114B186013681943116080229203BB
:100670000E4B1A60BD4601B0F0BDC0460000001030
:100680008000001080800440988004400C8000406E
:100690000080004004800040288000400880004026
:1006A00010800040208000403080004000E100E0E9
:1006B000F0B55F4656464D464446F0B487B000AFAD
:1006C0007861FA60334B1E78334A9446B6029246FC
:1006D00054E07B6901337B614B1CDBB23B610F292A
:1006E00044D8FC68032C41D84B08E400E4B2E40091
:1006F000E5188022D200AD18C000284A1018E3186F
:100700008824E400E418A146012211402A1C28E0B4
:1007100000290CD0F4186400BC605546655BFF22CC
:10072000954304782C43BD685246AC520DE0F41852
:100730006400BC606546655BFF22154004782402B6
:1007400025432C1CBD686246AC520133FF339BB27B
:100750007D68AB42DCD12A1C083292B201304A4596
:1007600004D00F4C13199BB27A60D1E739690F2975
:1007700004D9FB680133DBB2FB6000217D69287876
:100780000028A6D1BD4607B03CBC90469946A2467B
:10079000AB46F0BD9C10001098000010181400002B
:1007A00000FCFFFF80B500AF044B1A6801321A60ED
:1007B00001225242024B1A60BD4680BDA4100010B7
:1007C00000040050F0B54F464646C0B400AFC1002B
:1007D00089B24900134B1B78DB020020124A8918AA
:1007E0008946124AD2189046844680252D018026DB
:1007F000B6000CE01188E1528921090152188021CC
:1008000089005B18AB42F5D10230B04205D04346B7
:100810001C1849460A186346ECE7BD460CBC9046D6
:100820009946F0BD9C100010141B000098000010A9
:10083000F0B55F4656464D464446F0B483B000AF2F
:100840000A280DD03F4B1B78DB023F4AD218944652
:100850000025A9460122934686003C4BF61859E034
:100860000020FFF7AFFF63E0CCB2082838D8326829
:1008700097464A463AE052460A415C462240524276
:1008800092B233E008222A422CD0FF222EE0FF222F
:1008900008242C422AD0120228E0002C03D07A68C7
:1008A000032C23D021E042465C462240524292B2C1
:1008B0001CE062426241524292B217E0621E544210
:1008C0006241524292B211E0A21E5442624152422F
:1008D00092B20BE0E21E54426241524292B205E0F3
:1008E0001B4A03E0FF22120200E04A461A805A80A7
:1008F0009A80DA801A815A819A81DA8101318022C4
:1009000092009B180429AFD10135EDB210239C440D
:10091000202D0DD06C08A24663464946AA08904691
:10092000012462405C462240524292B27A609BE7C8
:10093000FFF738FFBD4603B03CBC90469946A2463F
:10094000AB46F0BD9C10001098000010F41300009E
:10095000FFFF000080B500AF0022024B1A80BD46A9
:1009600080BDC0469810001080B500AF0222034B36
:100970001A600022024B1A80BD4680BD1C800050C8
:1009800098100010F8B55F4656464D464446F0B400
:1009900000AF174B1E78174C0420174A174988469A
:1009A000174B9C46B602B246164DAB4614E0138870
:1009B000464636685546E9184900351C66468D534B
:1009C00001339BB213805B4506D9FFF7EBFE002293
:1009D000094B1A80012003E023681842E7D1002068
:1009E000BD463CBC90469946A246AB46F8BDC046C3
:1009F0009C1000100C0004409810001008000440E7
:100A000098000010FF030000B0B500AF0123474A73
:100A10001360002246490A60102046490860464992
:100A20000A6046490B60464B987841424841404233
:100A30004449086044490A6001214942434A11601F
:100A4000D9784900424A895A424A11609A7801325B
:100A50001F210A409A7014D11A1CDB78013303213C
:100A60000B40D3700DD13C4B1B68002B09D03B4B86
:100A70001A783B490A7051424A411A700022364B9B
:100A80001A600024314B1C602D4B9978C900DB782B
:100A90001B02C91889B2334A314803789B025B189C
:100AA0005B009D5A304B1D600578AD026D18013515
:100AB0006D00AD5A1D600578AD026D1802356D00F0
:100AC000AD5A1D600578AD026D1803356D00AD5A45
:100AD0001D600578AD026D1804356D00AD5A1D60BE
:100AE0000578AD026D1805356D00AD5A1D600578AD
:100AF000AD026D1806356D00AD5A1D60007880029C
:100B00004118073149008A5A1A60012252420E4B9D
:100B10001A60074B1C604622074B1A602022054BC7
:100B20001A600122054B1A60BD46B0BD00C00040EE
:100B3000080001403C000140180001400400014051
:100B400098100010000202500004025004000250ED
:100B50002418000018C00040000400509C10001031
:100B6000A81000109800001008800540F0B5474616
:100B700080B488B002AF381C0C30464B021C32CB1C
:100B800032C200247C6001253D70102188467970B6
:100B9000BD70FD700A23BB6000F07AFA009400205B
:100BA00008210022022300F0A5F83B4B1C703B4BB0
:100BB0001D703B4B1C603B4B1C60381C00F068FAFE
:100BC0000094012009210122012300F093F80094F0
:100BD000022007210022022300F08CF8009402205A
:100BE00008210022022300F085F800940220002151
:100BF0000022022300F07EF82B4B196880220A4362
:100C00001A603021294A11600321294A1160294ABA
:100C100014602021284A1160284A1460284A15606F
:100C2000284E8022520232601968802252000A4304
:100C30001A60254B1C600422244B1A60244B414649
:100C40001960244B1C60244B1C60244B1D600094D5
:100C5000002001210022002300F04CF8204A1168F6
:100C60000223994311601F4A1168994311601E4A7B
:100C70001168994311601D4A11680B43136080236A
:100C80001B0633601A4B1C60BD4606B004BC904680
:100C9000F0BDC04618180000A81000109C100010ED
:100CA000A4100010A0100010808004400CC0004070
:100CB00014C000403CC0004018C0004070C000405C
:100CC00004C0004000E100E00C00014014000140BD
:100CD0003C00014070000140080001400400014058
:100CE00004800050088000500C800050108000509C
:100CF00000040050F0B500AF032830D80B292ED8DF
:100D000045002D18AD006D18AD00164C2C59002C67
:100D100025D0C0252A437E69F5002A432260002B96
:100D200008D10004104A8018036801228A409343C6
:100D3000036014E00004A026F60585198C1C01222E
:100D4000161CA640AC19013B5D1EAB415B42236003
:100D5000054BC01803688A40111C19430160BD4649
:100D6000F0BDC0462C1800000080005080B500AFD8
:100D7000034B1A6803490A431A60BD4680BDC0464A
:100D8000808004404000010080B500AF0E48FFF7AE
:100D900017FC00F0FBFAFFF713FC0C48FFF710FC00
:100DA0000020FFF7C3FB2E20FFF7B2FB0120FFF767
:100DB000BDFB2E20FFF7ACFB0C20FFF7B7FB044870
:100DC000FFF70CFCBD4680BDC81A0000CC1A00001D
:100DD000D81A0000F0B54F464646C0B493B000AFF5
:100DE000FFF7C4FFFFF78CFAFFF702FC00F0B4FA3C
:100DF000FFF7BCFE664B1A680A3219688A42FCD1BA
:100E0000FFF7C2FF0A20FFF713FD00250026614C03
:100E1000614B9846614B994601E001250026FFF79A
:100E2000B1FDFFF753FB0028F9DB002D20D00A2885
:100E300001D00D2805D1331C10330F221E1C964300
:100E4000EDE703280ED13D1D00224023EA54281C63
:100E50000021FFF72DFCFFF7A5FC281CFFF7BEFBC8
:100E60000025DCE7402EDAD83B1D98550136D6E741
:100E70007628D4D8800023589F460020FFF7D8FC5E
:100E8000CDE70120FFF7D4FCC9E70220FFF7D0FC33
:100E9000C5E70320FFF7CCFCC1E70420FFF7C8FC3F
:100EA000BDE70520FFF7C4FCB9E70620FFF7C0FC4B
:100EB000B5E70720FFF7BCFCB1E70820FFF7B8FC57
:100EC000ADE70920FFF7B4FCA9E70A20FFF7B0FC63
:100ED000A5E7334B1B687220002B00D06220FFF780
:100EE00017FB9CE7FFF750FF99E70020FFF71EFB79
:100EF0005F20FFF70DFB0120FFF718FB5F20FFF7D6
:100F000007FB0C20FFF712FB0A20FFF701FB86E727
:100F10004046FFF755FB4B461868FFF707FB214893
:100F2000FFF74EFB204B1868FFF700FB1F48FFF749
:100F300047FB1F4B1878FFF7F9FA1E48FFF740FBF5
:100F40001D4B1878FFF7F2FA1C48FFF739FB144BDA
:100F50001868431E9841FFF7E9FA0A20FFF7D8FA0C
:100F60005DE7174B1868434258415E30FFF7D0FAEF
:100F700055E7FFF7EFFC52E7FFF714FC4FE73B1D87
:100F8000391C453120221A7001338B42FBD144E7D2
:100F9000AC100010EC180000FC1A0000A4100010A7
:100FA00000040050001B0000A0100010041B0000F3
:100FB000A8100010081B00009C1000100C1B000063
:100FC0000800005080B500AF064B1B68DA0706D555
:100FD0000122054B1A60054B1A6801321A60BD46A2
:100FE00080BDC0461C00044020000440A01000103A
:100FF00080B500AFBD4680BD90B583B002AF00287C
:1010000020D102240094022100220023FFF772FE67
:1010100000940020062100220023FFF76BFE0094BD
:101020000020082100220023FFF764FE0094002026
:10103000092100220023FFF75DFE80225203134B9B
:101040001A6020E0022400940220002100220023E4
:10105000FFF750FE00940220012100220023FFF739
:1010600049FE00940220022100220023FFF742FEE5
:1010700000940220032100220023FFF73BFE802280
:10108000D201024B1A60BD4601B090BD80E100E084
:10109000B0B582B002AF041C4378043B00200C2B97
:1010A00000D903E12378002B08D1814B1968012274
:1010B0009143196019680A431A6007E07C4B19686C
:1010C00004229143196019680A431A602378002B9F
:1010D0002AD10222774B1A600025009500200221B8
:1010E00001220023FFF706FE0095002006210222C0
:1010F0000023FFF7FFFD00950020082101220023B7
:10110000FFF7F8FD00950020092101220023FFF7D9
:10111000F1FD694B1968802212010A431A6080228E
:101120005203664B1A6026E000250095022000213C
:1011300002220023FFF7DEFD00950220012102229A
:101140000023FFF7D7FD0095022002210222002391
:10115000FFF7D0FD00950220032102220023FFF7B4
:10116000C9FD554B19688022D2020A431A608022B9
:10117000D201524B1A60A368002B0AD05B080121F0
:10118000FF2B0CD94E4A934206D8190A80235B00E4
:1011900005E00123022102E080235B007F21227809
:1011A000D20048481218012010602278500082189E
:1011B000D2034548121849001160227851008A185C
:1011C000D20342495218A07880016178013908435E
:1011D000E178C9010843013B1902031C0B4313606A
:1011E00023785A00D318DB03394A9B181A68022166
:1011F0008A431A60A368002B0AD023785A00D318B8
:10120000DB0333481B181A6804218A431A6021E063
:1012100023785A00D318DB032D495B181968042280
:101220000A431A602379002B0AD023785A00D31876
:10123000DB03274A9B181A6808218A431A6009E0D1
:1012400023785A00D318DB0321481B181968082299
:101250000A431A606379002B07D023785A00D31809
:10126000DB031C495B1808221A60A379002B07D006
:1012700023785A00D318DB03164A9B1806221A60FB
:10128000E379002B07D023785A00D318DB031148E9
:101290001B1801221A6023785A00D318DB030C496B
:1012A0005B18196802220A431A600120BD46B0BDCE
:1012B00004800440B04004408080044000E100E02D
:1012C000FF7E0000948004401000044000000440B1
:1012D000040004401400044098B500AF134B144AB6
:1012E0009A420DD0134B1148C01A8008013080007B
:1012F0000023111C104AD458CC5004338342FAD135
:101300000E4B0F4A9A420AD0131C04320B49891A19
:10131000890889005118002204C38B42FCD10020A7
:101320000021FFF757FDBD4698BDC04600000010E4
:101330000000001004000010A83D0000B0100010D4
:101340000000001080B500AF024B1A6801321A602D
:10135000BD4680BDAC10001080B500AF0722064B23
:101360001A60064A064B1A600023064A1360064AB2
:101370001360BD4680BDC04610E000E0FF5207008C
:1013800014E000E018E000E0AC10001080B500AF01
:101390000148BD4680BDC046543D000080B500AF49
:1013A0000148BD4680BDC046843D000080B500AF09
:1013B0000148BD4680BDC0468C3D000080B500AFF1
:1013C0000148BD4680BDC0469C3D000000CA9A3B16
:1013D00000E1F5058096980040420F00A0860100CC
:1013E00010270000E8030000640000000A0000006D
:1013F0000100000072080000760800008408000068
:101400008E0800009A080000B2080000BC08000026
:10141000C8080000D4080000000000000000000020
:10142000003E41554155493E003E7F6B7F6B773E04
:101430000022777F7F3E1C0800081C3E7F3E1C0870
:1014400000081C2A7F2A081C00081C3E7F3E081C3E
:1014500000001C3E3E3E1C00FFFFE3C1C1C1E3FF94
:1014600000001C2222221C00FFFFE3DDDDDDE3FF84
:10147000000F03053948483000083E081C22221C92
:101480000018141010307060000F191113377660B7
:1014900000082A1C771C2A080060787E7F7E78600E
:1014A00000030F3F7F3F0F0300081C2A082A1C0877
:1014B0000066666666006666003F65653D05050573
:1014C000000C324824124C3000000000007F7F7F67
:1014D00000081C2A082A1C3E00081C3E7F1C1C1CFD
:1014E000001C1C1C7F3E1C0800080C7E7F7E0C0824
:1014F0000008183F7F3F18080000007070707F7F61
:10150000000014227F22140000081C1C3E3E7F7F36
:10151000007F7F3E3E1C1C08000000000000000011
:1015200000183C3C18180018003636140000000063
:101530000036367F367F363600081E201C023C08F7
:101540000060660C18306606003C663C2865663F05
:10155000001818183000000000060C1818180C06A7
:1015600000603018181830600000361C7F1C3600F0
:10157000000008083E08080000000000303030601D
:10158000000000003C00000000000000000060605F
:101590000000060C18306000003C666E7666663C03
:1015A000001818381818187E003C66060C30607E4B
:1015B000003C66061C06663C000C1C2C4C7E0C0C89
:1015C000007E607C0606663C003C66607C66663C8D
:1015D000007E660C0C181818003C66663C66663C7B
:1015E000003C66663E06663C0000181800181800AD
:1015F000000018180018183000060C1830180C06D7
:101600000000003C003C0000006030180C18306006
:10161000003C66061C1800180038445C58423C0028
:10162000003C66667E666666007C66667C66667CF6
:10163000003C66606060663C007C66666666667C50
:10164000007E60607C60607E007E60607C606060C8
:10165000003C6660606E663C006666667E66666636
:10166000003C18181818183C001E0C0C0C6C6C3838
:1016700000666C7870786C66006060606060607EA8
:101680000063777F6B6363630063737B6F67636380
:10169000003C66666666663C007C6666667C6060EA
:1016A000003C6666666E3C06007C66667C786C660E
:1016B000003C66603C06663C007E5A1818181818F4
:1016C000006666666666663E0066666666663C1826
:1016D000006363636B7F7763006363361C36636309
:1016E000006666663C181818007E060C1830607E8E
:1016F000001E18181818181E00006030180C06007C
:1017000000781818181818780008142241000000F2
:10171000000000000000007F000C0C06000000002C
:101720000000003C063E663E006060607C66667CB1
:101730000000003C6660663C000606063E66663EAB
:101740000000003C667E603C001C3630307C30304F
:1017500000003E66663E063C006060607C66666631
:10176000000018001818183C000C000C0C6C6C38A9
:10177000006060666C786C660018181818181818E5
:1017800000000063777F6B6B0000007C7E666666FE
:101790000000003C6666663C00007C66667C60601B
:1017A00000003C6C6C3C0D0F0000007C66666060C5
:1017B0000000003E403C027C000018187E181818FB
:1017C000000000666666663E0000000066663C1823
:1017D000000000636B6B6B3E000000663C183C66CB
:1017E00000000066663E063C0000003C0C18303CE1
:1017F000000E18183018180E0018181800181818AD
:10180000007018180C1818700000003A6C000000E6
:1018100000081C366341417F0010000100000001F8
:101820000000000020004000800000010C40044047
:10183000104004401C4004402C4004403040044010
:10184000344004404C400440504004406040044058
:1018500064400440684004407440044078400440C0
:101860007C40044080400440904004409440044048
:10187000A0400440A4400440A84004401440044058
:10188000384004406C400440984004400840044004
:10189000284004405C4004408C40044040400440E8
:1018A00044400440004004402040044024400440A0
:1018B0005440044058400440704004408440044078
:1018C000884004409C400440AC4004403C400440FC
:1018D000484004400000000000000000000000003C
:1018E0000000000000000000000000001E0E0000CC
:1018F0001E0E00007E0F00001E0E00001E0E0000D7
:101900001E0E00001E0E00001E0E00001E0E000027
:101910001E0E00001E0E00001E0E00001E0E000017
:101920001E0E00001E0E00001E0E00001E0E000007
:101930001E0E00001E0E00001E0E00001E0E0000F7
:101940001E0E00001E0E00001E0E00001E0E0000E7
:101950001E0E00001E0E00001E0E00001E0E0000D7
:101960001E0E00001E0E00001E0E00001E0E0000C7
:101970001E0E00001E0E0000100F00001E0E0000C4
:101980001E0E00001E0E00001E0E00001E0E0000A7
:101990001E0E00001E0E00001E0E00001E0E000097
:1019A0001E0E00001E0E00001E0E00007A0E00002B
:1019B000820E00008A0E0000920E00009A0E0000B7
:1019C000A20E0000AA0E0000B20E0000BA0E000027
:1019D000C20E00001E0E00001E0E00001E0E0000B3
:1019E0001E0E00001E0E0000D20E00001E0E000093
:1019F0001E0E00001E0E00001E0E00001E0E000037
:101A00001E0E00001E0E00001E0E00001E0E000026
:101A10001E0E00001E0E00001E0E00001E0E000016
:101A20001E0E00001E0E00001E0E00001E0E000006
:101A30001E0E00001E0E00001E0E00001E0E0000F6
:101A40001E0E00001E0E00001E0E00001E0E0000E6
:101A50001E0E00001E0E00001E0E00001E0E0000D6
:101A60001E0E00001E0E00001E0E00001E0E0000C6
:101A70001E0E00001E0E00001E0E00001E0E0000B6
:101A80001E0E0000780F00001E0E00001E0E00004B
:101A9000E40E00001E0E00001E0E0000CA0E000024
:101AA0001E0E00001E0E00001E0E00001E0E000086
:101AB0001E0E0000620F0000720F00001E0E0000DC
:101AC0001E0E0000EA0E00000A0A000020207665C3
:101AD0007273696F6E3A20000A20206275696C6427
:101AE00020646174653A20417567202039203230C6
:101AF00031362031323A30373A323400663A00001B
:101B000020653A0020623A002F0000002C20623A43
:101B10000000000000001F0000FC000000000000AA
:101B20000000000000007000FF070000000000003F
:101B3000000000000000C70101E0C0FF000000003D
:101B40000000000000001F03F8FF7F0000FE0000FF
:101B50000000000000007806FF3F00FEFF0300C009
:101B6000000000000000E0040000FFFF00F0FF7F25
:101B700000C000000000C00D00003F00FEFF00009C
:101B8000007C000000008009C01F0000FF0F80FFE4
:101B9000000700000000800BF8FF801F0000FFFF1F
:101BA00080F100000000010BF8FD803F00001F00E5
:101BB00080F800000000030BF8F8003F0000000070
:101BC000C01E00000000030BFBF087FF1EF000E0CA
:101BD000400600000000030B33F09FFF3FFC7FF73F
:101BE000400300000000030B80FF3FFC7F3EFFF737
:101BF000608300000000810BF0FF7EFC7F7EDFE74A
:101C000020C3000000008009F1077FF8FCFC8FCFA3
:101C100030C300000000C00DF107FFF8FCF81F1FE3
:101C2000108700000000E004F307FCF0F8011F3FFC
:101C30001006000000007806E30F7CF0F03B3F7ECA
:101C4000103C000000001F02C3FF3FFEF0F33F7E88
:101C500030F800000000070301FF8FFFE0F71F7C52
:101C600020E00000000080010000000000000000F3
:101C7000600000000000C00000001800E00000004C
:101C8000C00000000000600000001800C001300328
:101C900080010000000038000000021EC3C360C6BF
:101CA0000007000000000F00FFFF333B66E367C63C
:101CB00000FC00000000000003007737ED66C4CC94
:101CC00000000000000000000200677EC777E46E9D
:101CD0000000000000000000020000E000000C0016
:101CE00000000000000000000200FFCFFFFFF8FF2F
:101CF00000000000000000000200001800000000CA
:101D00000000000000000000030000F000000000E0
:101D100000000000000000000000000000000000C3
:101D200000000000000000000000000000000000B3
:101D300000000000000000000000000000000000A3
:101D40000000000000000000000000000000000093
:1023A0000000000000001F0000FC00000000000012
:1023B0000000000000007000FF07000000000000A7
:1023C000000000000000C70101E0C0FF00000000A5
:1023D0000000000000001F03F8FF7F0000FE000067
:1023E0000000000000007806FF3F00FEFF0300C071
:1023F000000000000000E0040000FFFF00F0FF7F8D
:1024000000C000000000C00D00003F00FEFF000003
:10241000007C000000008009C01F0000FF0F80FF4B
:10242000000700000000800BF8FF801F0000FFFF86
:1024300080F100000000010BF8FD803F00001F004C
:1024400080F800000000030BF8F8003F00000000D7
:10245000C01E00000000030BFBF087FF1EF000E031
:10246000400600000000030B33F09FFF3FFC7FF7A6
:10247000400300000000030B80FF3FFC7F3EFFF79E
:10248000608300000000810BF0FF7EFC7F7EDFE7B1
:1024900020C3000000008009F1077FF8FCFC8FCF0B
:1024A00030C300000000C00DF107FFF8FCF81F1F4B
:1024B000108700000000E004F307FCF0F8011F3F64
:1024C0001006000000007806E30F7CF0F03B3F7E32
:1024D000103C000000001F02C3FF3FFEF0F33F7EF0
:1024E00030F800000000070301FF8FFFE0F71F7CBA
:1024F00020E000000000800100000000000000005B
:10250000600000000000C00000001800E0000000B3
:10251000C00000000000600000001800C00130038F
:1025200080010000000038000000021EC3C360C626
:102530000007000000000F00FFFF333B66E367C6A3
:10254000C0FD00000000000003007737ED66C4CC3A
:1025500020020000000000000200677EC777E46EE2
:102560009005000000000000020000E000000C00E8
:1025700090050000000000000200FFCFFFFFF8FF01
:1025800050050000000000000200001800000000DC
:102590002002000000000000030000F00000000026
:1025A000C00100000000000000000000000000006A
:1025B000000000000000000000000000000000001B
:1025C000000000000000000000000000000000000B
:1025D00000000000000000000000000000000000FB
:1025E00000000000000000000000000000000000EB
:102D9000000000000000000000001800E00000003B
:102DA000000000000000000000001800C001300317
:102DB00000000000000000000000021EC3C360C647
:102DC00000000000000000000000333B66E360C626
:102DD000C00100000000000000007737ED66C0CCA5
:102DE00020020000000000000000677EC777E06E50
:102DF0009005000000000000000000E0000000005E
:102E00009005000000000000000000C0000000006D
:102E1000500500000000000000000000000000005D
:102E20002002000000000000000000000000000080
:102E3000C0010000000000000000000000000000D1
:102E40000000000000000000000000000000000082
:102E50000000000000000000000000000000000072
:102E60000000000000000000000000000000000062
:102E70000000000000000000000000000000000052
:1034C0000000000000001F0000FC000000000000E1
:1034D0000000000000007000FF0700000000000076
:1034E000000000000000C0010100C0FF000000005B
:1034F000000000000000000300007F0000FE00004C
:10350000000000000000000600000000FF0300C0F3
:103510000000000000000004000000000000FF7F29
:1035200000C000000000000C0000000000000000CF
:10353000007C000000000008000000000000000007
:10354000000700000000000800000000000000006C
:1035500080010000000000080000000000000000E2
:1035600080000000000000080000000000000000D3
:10357000C000000000000008000000000000000083
:1035800040000000000000080000000000000000F3
:1035900040000000000000080000000000000000E3
:1035A00060000000000000080000000000000000B3
:1035B00020000000000000080000000000000000E3
:1035C000300000000000000C0000000000000000BF
:1035D00010000000000000040000000000000000D7
:1035E00010000000000000060000000000000000C5
:1035F00010000000000000020000000000000000B9
:103600003000000000000003000000000000000087
:103610002000000000008001000000000000000009
:10362000600000000000C00000001800E000000082
:10363000C00000000000600000001800C00130035E
:1036400080010000000038000000021EC3C360C6F5
:103650000007000000000F00FFFF333B66E367C672
:1036600000FC00000000000003007737ED66C4CCCA
:1036700000000000000000000200677EC777E46ED3
:103680000000000000000000020000E000000C004C
:1036900000000000000000000200FFCFFFFFF8FF65
:1036A0000000000000000000020000180000000000
:1036B0000000000000000000030000F00000000017
:1036C00000000000000000000000000000000000FA
:1036D00000000000000000000000000000000000EA
:1036E00000000000000000000000000000000000DA
:1036F00000000000000000000000000000000000CA
:103D500000000000537465726E2050696E62616CE1
:103D60006C204E6F646520446F74204D61747269DD
:103D70007820446973706C61792044726976657249
:103D800000000000302E312E3132000022417567D4
:103D90002020392032303136220000002231323AE0
:083DA00030373A3235220000F1
:00000001FF
