:10000000ACC113C012C011C010C00FC00EC00DC0D3
:100010000CC00BC00AC009C008C007C006C005C09C
:1000200004C003C002C001C000C0189504B7077F18
:1000300004BF01B50879086001BD089500E002B968
:1000400001E009B900E00BB908E10AB90EE003B913
:10005000899A939A949A0895B89ABA9A8E98969A89
:10006000C098C29A0895C49ABC9A089508B30A6EBB
:1000700008BB02B30C6A02BB0895E199FECF089554
:100080000027E199039508950EBBE09A0DB30895FA
:100090000EBBE09A0DB3021729F02DBB00270CBB55
:1000A000E29AE19A089591E09A95F1F7002729E004
:1000B00098E09A95F1F78894869908940795179592
:1000C0002A95B1F7110F001F111F0895C2981260F1
:1000D0002AE038B397E09A95F1F7000000001795F1
:1000E00007953B7F08F4346038BB2A9599F708954B
:1000F000DADF5D9BFECF0CB9869BFECF0895A0E0B2
:10010000B0E2CFE111E00C2FC09AE0DFC09800E030
:100110002CE830E023953395869B01602A95E1F722
:100120003A95D1F7002311F0BC2F02C0AC2FA39554
:10013000CB2FCA1BC695CA0F19F0BA1318F701C006
:10014000C395B03208F0C0E0CCB9089500E010E8E3
:10015000039513955F9905C00A95E1F71A95D1F7B4
:1001600008950CB1989408955D9BFECF0CB9089545
:10017000B0E0A4E7002E03940A9419F00D91F4DF87
:10018000FBCF089500916400033049F476DF0091BD
:10019000650010916600209167007ADF06C008951F
:1001A00000916400023009F0089567DF0091650056
:1001B0001091660069DF0093740001E0D9CF0091CF
:1001C0006300013069F30230E9F20330B9F0043022
:1001D00029F1053019F0063089F108950091640085
:1001E000003059F400916000E199026000937400BE
:1001F00000E0009360000395BBCF08950091640078
:10020000003059F401E00093740000E000937500A1
:1002100003E00093760003E0ABCF08950091640003
:10022000013059F400916500003019F0C09AC2986D
:1002300002C0C098C29A00E09BCF0895009164006C
:10024000023051F400916500009361000091660056
:100250000093620000E08CCF089506C0009160001A
:10026000046000936000C098A895869905C000912D
:1002700060000860009360005F9BF6CF5C994FC000
:100280000CB107FF53C011E0202EC09A1FDF5EDFC4
:1002900029F3002E039410E019DF0A9429F056DFA9
:1002A000E9F210E013DFF9CFC09850DFB9F2003067
:1002B000D9F210916000137F10936000002E0A9411
:1002C000C4981091610020916200139523950CE26F
:1002D0000A9581F40CE21A9569F42A9559F4C49AA6
:1002E0000091600004600093600005E53DDF0A9422
:1002F000E9F707C05C9913C08699EACFF9DE0A9442
:10030000F9F6C49A009160002FDF00E000936000CE
:1003100008E00093610000E000936200A5CF009127
:1003200060000160009360000CB19ECF003011F4BA
:10033000E6DE9ACF0093630009DF71F00F7000933F
:10034000640049F0102EB0E0A5E603C0FFDE21F006
:100350000D931A94DAF733DF87CF00E00EBF0FED6D
:100360000DBF00E008BB02BB00E10093600008E0A5
:100370000093610000E00093620058DE5FDE6CDEF7
:0603800072DE74DE6ACF9C
:00000001FF
