:10000000B81C001041170000411700004117000004
:100010004117000041170000411700004117000080
:100020004117000041170000411700004117000070
:10003000411700004117000041170000AD170000F4
:100040004117000041170000411700004117000050
:100050004117000041170000411700004117000040
:100060004117000041170000411700004117000030
:100070004117000041170000310E00004117000039
:10008000D50E000041170000411700004117000085
:1000900035140000E903000041170000411700007B
:1000A00041170000411700004117000041170000F0
:1000B000411700004117000041170000990D000092
:1000C000535445524E2050696E62616C6C20446FEF
:1000D00074204D617472697820447269766572008B
:1000E0000000000000000000000000000000000010
:1000F0000000000000000000000000000000000000
:1001000000000000000000000000000000000000EF
:1001100000000000000000000000000000000000DF
:1002F00000000000000000000000000021436587AE
:1003000080B500AF0E4B1A6880218A431A60002224
:100310000C4B1A600C4B1A6001221A6043220B4BE3
:100320001A600B4901220B681A42FCD00322094BC8
:100330001A60094B00221A6001221A60BD4680BD76
:1003400038820440408004404480044008800440D7
:100350000C8004407080044074800440F0B547462F
:1003600080B400AF1C4B1A6802218A431A601B4BF1
:1003700019784A1C7F2422405B78934203D0174BA4
:10038000591808711A70164B1B6898061AD5134A2B
:10039000537812789A4215D0104A124E7F25104C8D
:1003A000202188469446D3181B7933605378013353
:1003B0002B40537021684046084203D060460178C4
:1003C0009942F0D1044B196802220A431A60BD46D3
:1003D00004BC9046F0BDC046048000400000001000
:1003E0001480004000800040F0B55F4656464D4600
:1003F0004446F0B400AF2F488146FF2188462E4B7B
:100400009B469A461A1C9C4644E00340042B0DD0A0
:100410000C2B0BD0022B3FD1284B1B689C062FD5F1
:1004200055466B782978994217D12EE0234B1B68EB
:100430001A2119420ED1224B1C68224801794B1C0B
:100440000F2003401F4D6879984223D069180C7221
:100450002B711FE01A4B1B681CE0194D7F241748B5
:10046000D3181B792B6053780133234053700668EF
:100470002021314204D061460E789E4205D0EFE73C
:100480005B4659781B78994204D10F4B19680220BA
:100490008143196001210E204C46236845462B40BC
:1004A0001942B2D0BD463CBC90469946A246AB46E6
:1004B000F0BDC046088000400000001014800040DD
:1004C00000800040800000100480004080B500AF34
:1004D0000D4B1A6801218A431A600C4A537912792C
:1004E0009A4207D0094AD118087A01330F210B40EC
:1004F000537101E001204042034B196801220A4375
:100500001A60BD4680BDC0460480004080000010D7
:1005100098B500AF041E0A2C02D10D20FFF71EFF74
:10052000E0B2FFF71BFF0020BD4698BDF0B547467F
:1005300080B48AB000AF8046204A3B1C31CA31C328
:1005400013CA13C323CA23C312681A604246002A7F
:1005500024DA2D20FFF7DCFF43465B4298461DE07E
:10056000191C01321B1A0029FADA4018804660462D
:10057000002803D0012A01D1092C04D1101C2F30EE
:10058000FFF7C6FFB446013404350A2C10D04146AB
:10059000002909DB28680B1A321CE1E73D1C002406
:1005A000012294460026F2E72B689844321CE5E7C6
:1005B000BD460AB004BC9046F0BDC04634180000E9
:1005C00098B500AF041C0078002805D00134FFF76F
:1005D0009FFF20780028F9D1BD4698BD80B500AFB7
:1005E000FFF7EEFF0A20FFF793FF0020BD4680BD16
:1005F000F0B583B002AF214B00241C705C70204B1F
:100600001C715C710094012007210122022300F07B
:1006100099FD0094012006210122002300F092FDA3
:10062000184B1968802252010A431A600121164BA7
:100630001960164B1A68802002431A601A25144A62
:100640001560144A14601026134D2E601D688543F2
:100650001D60124D296003251D60114B1C60114B5C
:100660001C60114B186013681943116080229203BB
:100670000E4B1A60BD4601B0F0BDC0460000001030
:100680008000001080800440988004400C8000406E
:100690000080004004800040288000400880004026
:1006A00010800040208000403080004000E100E0E9
:1006B000F0B55F4656464D464446F0B400AF037869
:1006C0001B09984643781B099C46867836092E4BB1
:1006D0001B785A00D3189A022C4988188346C023E5
:1006E0001B01C9185218914601254146294089002D
:1006F00062462A40520011432A1C324011438AB2FA
:10070000940250030443D0010443100104435000F9
:10071000044388080443D002930318431302184388
:100720005301184393001843824648085146014339
:1007300088B2D10313030B4313439A465302514625
:100740001943930119438A46D10052460A4391B294
:10075000C02292005A445B461C8058809980063320
:100760009342F9D143465B08984660464008844668
:1007700076084A4501D09346B7E7BD463CBC904653
:100780009946A246AB46F0BDA41800109800001090
:10079000F0B55F4656464D464446F0B489B000AFCA
:1007A00003781B099A4643781B09994683781B09ED
:1007B00098460B781B09FB604B781B09BB608B7854
:1007C0001B097B60574B1B785A00D3189B02564A73
:1007D000D0188446C02109015218D2183A6001226B
:1007E00093468025FF3559465346194089005B469C
:1007F000484603405B0019435B4642461340194399
:100800005A46FB681A4092005B46B86803405B009A
:100810001A435B46786803401A438BB29C02580324
:100820000443D801044318010443580004438808D2
:100830002043B882DC0298030443180204435801A1
:1008400004439800204349080843F882D803190359
:10085000084318435902084399010143DB00194337
:10086000398393B2980259030843D9010843190107
:10087000084359000843910801437983D80299033A
:1008800008431902084359010843990001435208DB
:100890001143B983D9031A03114319435A0211436F
:1008A0009A010A43DB001A43FA83624603210023BC
:1008B0003C1C143401E0063203315800C61876009F
:1008C000365B1680C0184000201846885680808805
:1008D0009080C329EFD058424341DBB2A942EAD904
:1008E000514649088A464A465208914643465B08A3
:1008F0009846F8684008F860B9684908B9607A68AD
:1009000052087A60C0239B009C443868844500D01C
:1009100069E7BD4609B03CBC90469946A246AB4645
:10092000F0BDC046A418001098000010F0B55F4656
:1009300056464D464446F0B485B000AFB8603A60C4
:10094000344B1B78344A91465A00D3185B029C46BC
:10095000CA4652E0BC680134BC604B1CDBB27B6011
:100960000F2942D83D68032D3FD84C08C0002B4EBC
:100970003018EB00DBB2182253439BB2E21892B25C
:10098000C0341B199BB2FB60012319402BE0D41823
:10099000A4B200290DD0644464005546655BFF266F
:1009A000B543A8460578464635432E1C5546665342
:1009B0000CE0644464004D46655BFF263540A84664
:1009C00005782D0246462E434D4666538133FF334C
:1009D0009BB2C024E400A342D9D10130183292B2B4
:1009E000FD68AA4201D00023D1E779680F2904D914
:1009F0003B680133DBB23B600021BE6830780028E1
:100A0000A8D1BD4605B03CBC90469946A246AB462F
:100A1000F0BDC046A418001098000010881800000F
:100A200080B500AF044B1A6801321A6001225242AD
:100A3000024B1A60BD4680BDAC1800100004005087
:100A400090B500AF084B1B785A00D3189B02074C97
:100A5000E41800230648C0210901C25AE2520233B9
:100A60008B42FAD1BD4690BDA4180010980000102A
:100A7000F41F000090B500AF002A05D00023CC5C25
:100A8000C45401339342FAD1BD4690BDF0B55F46E0
:100A900056464D464446F0B495B000AF061C3B1C8C
:100AA0004C3300241C705C709C70AB4D381C48307B
:100AB000291C0322FFF7DEFF3B1C4433FF221A7080
:100AC0005C709C70291D381C40300322FFF7D2FF58
:100AD000291C0831381C3C300322FFF7CBFF291CAE
:100AE0000C31381C38300322FFF7C4FF0A2E00D91E
:100AF00027E1B600994B9B599F46FFF7A1FF20E1E4
:100B00009748FFF75DFD381C4C30FFF7D1FD18E129
:100B10009448FFF755FD3B1C40331A7812093A619F
:100B20005A781209FA609B781B09BB608E4B1B78C0
:100B30005A00D3189B028D4AD3187B61002084464B
:100B40000121894664E00B1C211C6246D1404E46BF
:100B5000314089002A1C6046C24032405200114395
:100B60005A46C240324011438AB2960250030643AD
:100B7000D00106431001064350000643880806438F
:100B80003E60D60290030643B246160250463043FA
:100B90005601304382469000564630434908084388
:100BA00080B2D10316030E43164351020E43B246E0
:100BB0009601514631438A46D10052460A4392B2C9
:100BC000191C30313E681E8058809A8006338B4253
:100BD000F9D1231C5A1E9341E41A2B1C5A1E93412F
:100BE000ED1A5B465A1E93415A46D21A9346182371
:100BF0009844C0267600B045A5D101208444796987
:100C0000C0229200891879616346042B00D198E0D4
:100C10007C69A246BD68FC683E69002080462A1CAB
:100C2000251C341C534693468EE7381C4C30391C27
:100C30004831FFF7ADFD84E0381C3C30391C4031B1
:100C4000FFF7A6FD7DE0391C1831434B10330A1C19
:100C500070CB70C213CB13C260CB60C2424B1B7807
:100C60005A00D3189B024149CA18C0200001091834
:100C70005B18984600218C4607239A4635E083008E
:100C80001833D9598BB29C02A1465C034E462643C9
:100C9000DC0126431C0126435C0026438C083443B8
:100CA0001480DC02A1469C034E4626431C022643C8
:100CB0005C0126439C0026434C08311C2143518093
:100CC000DC0319030C431C4359020C4399010C43E8
:100CD000D900231C0B439380013051460840063253
:100CE000AA42CCD145452CD02A1CC0239B00D51844
:100CF0006046C4E71E48FFF763FC381C4830FFF726
:100D0000D7FC1EE01B48FFF75BFC381C4030FFF7A8
:100D1000CFFC16E01848FFF753FC381C3C30FFF7B7
:100D2000C7FC0EE01548FFF74BFC381C3830FFF7C6
:100D3000BFFC06E01248FFF743FC381C4430FFF7C5
:100D4000B7FCFFF76DFEBD4615B03CBC904699461A
:100D5000A246AB46F0BDC046881C00005C180000EF
:100D6000CC1C0000D41C0000A41800109800001037
:100D7000E01C0000E81C0000F01C0000F81C000053
:100D8000041D000080B500AF0022024B1A80BD4652
:100D900080BDC0469818001080B500AF0222034BFA
:100DA0001A600022024B1A80BD4680BD1C80005094
:100DB00098180010F8B54F464646C0B400AF164B21
:100DC0001B78164C0420164A16498C46164DA84628
:100DD0005D00ED186D02A94614E0138861460E68A7
:100DE0004D46E918490045464E5301339BB21380E6
:100DF0000E498B4206D9FFF713FE0022084B1A80DA
:100E0000012003E023681842E7D10020BD460CBC56
:100E100090469946F8BDC046A41800100C00044046
:100E2000981800100800044098000010FF0500000A
:100E3000F0B55F4656464D464446F0B400AF1F4BF2
:100E40001B6899072CD51E4B9B78002B2CD01D4A74
:100E500094461D4EB3461D4D194B994600218846B8
:100E6000181C164C624611789A88561C9E804E00BB
:100E7000B246514449028A1852005946525A2A60D1
:100E80009A79022A02D946464A4696718278013AF0
:100E9000D2B2827021688E0702D5002AE2D103E027
:100EA000074B9B78002B02D10022094B1A60BD46EC
:100EB0003CBC90469946A246AB46F0BD0C8005402E
:100EC00098180010B0180010980000100880054015
:100ED0001480054090B500AF0122284B1A60284BC2
:100EE00019689143196001225242264B1A60264B21
:100EF000D87940002549405A2549086025490A60AB
:100F0000187A411E88414042234908602349002045
:100F100008600A601A7A01320F210A401A7214D14D
:100F20001A1CDB79013303210B40D3710DD11C4B0B
:100F30001B68002B09D01B4B1A781B490A705142C1
:100F40004A411A700022164B1A600022114B1A6097
:100F50000D4B187A18225043DC79C02149006143B7
:100F6000411899809A700822104B1A60044B196836
:100F700001220A431A60BD4690BDC04600C0004031
:100F8000384004400008015098180010C41C0000AC
:100F900018C0004004000250000202500004025039
:100FA00000040050A4180010B01800101480054070
:100FB000F0B589B002AF381C0C30484B3033021CFE
:100FC00032CB32C200247C6001253D7010237B703F
:100FD000BD70FD700823BB6000F08EFA0094002005
:100FE00008210022022300F0ADF83D4B1C703D4B60
:100FF0001D703D4B1C603D4B1C60381C00F07CFAA2
:101000000094012009210122022300F09BF8384BB3
:101010001C600094022007210022022300F092F8B5
:101020000094022008210022022300F08BF8009493
:10103000022000210022022300F084F82D4B1968C1
:1010400080220A431A6030212B4A116003222B4967
:101050000A602B490C6045202A4908602A490C6027
:101060002A490D602A4E802149023160186880218A
:10107000490001431960274B1C60274B1C60274B1C
:101080001A60FF21264A11608021C900254A11609B
:10109000254A15602021254A11601D60009400201A
:1010A00001210022002300F04DF8214A116802239B
:1010B000994311601F4A1168994311601E4A1168D3
:1010C000994311601D4A11680B43136080231B066E
:1010D00033601B4B1C60BD4607B0F0BD881C000090
:1010E000B0180010A4180010AC180010A8180010B8
:1010F00000080150808004400CC0004014C0004033
:101100003CC0004018C0004070C0004004C0004017
:1011100000E100E00C0001407000014004000140CB
:1011200024000140140001407400014018000140F7
:1011300004800050088000500C8000501080005047
:1011400000040050F0B500AF032830D80B292ED88A
:1011500045002D18AD006D18AD00164C2C59002C13
:1011600025D0C0252A437E69F5002A432260002B42
:1011700008D10004104A8018036801228A40934372
:10118000036014E00004A026F60585198C1C0122DA
:10119000161CA640AC19013B5D1EAB415B422360AF
:1011A000054BC01803688A40111C19430160BD46F5
:1011B000F0BDC0460C1D00000080005080B500AF9F
:1011C000034B1A6803490A431A60BD4680BDC046F6
:1011D000808004404000010080B500AF0E48FFF75A
:1011E000EFF900F007FBFFF7EBF90C48FFF7E8F920
:1011F0000020FFF79BF92E20FFF78AF90120FFF767
:1012000095F92E20FFF784F90120FFF78FF90448A4
:10121000FFF7E4F9BD4680BDA81F0000AC1F000029
:10122000B81F0000F0B54F464646C0B493B000AFBB
:10123000FFF7C4FFFFF764F8FFF7DAF900F0C0FA30
:10124000FFF7B6FE6D4B1A680A3219688A42FCD164
:10125000FFF7C2FF0A20FFF719FC00250026684CA3
:10126000684B9846684B994601E001250026FFF738
:10127000A1FDFFF72BF90028F9DB002D20D00A286B
:1012800001D00D2805D1331C10330F221E1C9643AC
:10129000EDE703280ED13D1D00224023EA54281C0F
:1012A0000021FFF743FBFFF7BBFB281CFFF796F974
:1012B0000025DCE7402EDAD83B1D98550136D6E7ED
:1012C000762800D98DE08300E3589F460020FFF781
:1012D000DDFBCCE70120FFF7D9FBC8E70220FFF7D1
:1012E000D5FBC4E70320FFF7D1FBC0E70420FFF7DD
:1012F000CDFBBCE70520FFF7C9FBB8E70620FFF7E9
:10130000C5FBB4E70720FFF7C1FBB0E70820FFF7F4
:10131000BDFBACE70920FFF7B9FBA8E70A20FFF700
:10132000B5FBA4E7394B1B687220002B00D062206C
:10133000FFF7EEF89BE7FFF74FFF98E70020FFF776
:10134000F5F85F20FFF7E4F80120FFF7EFF85F20E2
:10135000FFF7DEF80120FFF7E9F80A20FFF7D8F8D9
:1013600085E74046FFF72CF94B461868FFF7DEF893
:101370002748FFF725F9274B1868FFF7D7F82648C5
:10138000FFF71EF9254B1878FFF7D0F82448FFF730
:1013900017F9244B1878FFF7C9F82348FFF710F91D
:1013A0001A4B1868431E9841FFF7C0F80A20FFF750
:1013B000AFF85CE71D4B1868434258415E30FFF7B9
:1013C000A7F854E7FFF7DEFC51E7FFF729FB4EE7EC
:1013D0003B1D391C453120221A7001338B42FBD151
:1013E00043E7031C413B192B00D940E740388300F9
:1013F000181840000E4B186039E7C046B4180010AA
:10140000CC1D0000DC1F0000AC18001000040050D0
:10141000E01F0000A8180010E41F0000B018001022
:10142000E81F0000A4180010EC1F00000800005086
:101430001800014080B500AF064B1B68DA0706D5DF
:101440000122054B1A60054B1A6801321A60BD462D
:1014500080BDC0461C00044020000440A8180010B5
:1014600090B583B002AF002820D10224009402215D
:1014700000220023FFF766FE0094002006210022D0
:101480000023FFF75FFE00940020082100220023C4
:10149000FFF758FE00940020092100220023FFF7E7
:1014A00051FE80225203134B1A6020E00224009464
:1014B0000220002100220023FFF744FE00940220B6
:1014C000012100220023FFF73DFE009402200221AB
:1014D00000220023FFF736FE0094022003210022A1
:1014E0000023FFF72FFE8022D201024B1A60BD4677
:1014F00001B090BD80E100E0B0B582B002AF041C45
:101500004378043B00200C2B00D903E12378002B07
:1015100008D1814B196801229143196019680A4367
:101520001A6007E07C4B196804229143196019681E
:101530000A431A602378002B2AD10222774B1A60C3
:10154000002500950020022101220023FFF7FAFD6B
:1015500000950020062102220023FFF7F3FD0095ED
:101560000020082101220023FFF7ECFD0095002058
:10157000092101220023FFF7E5FD694B196880224C
:1015800012010A431A6080225203664B1A6026E059
:10159000002500950220002102220023FFF7D2FD42
:1015A00000950220012102220023FFF7CBFD0095C8
:1015B0000220022102220023FFF7C4FD0095022031
:1015C000032102220023FFF7BDFD554B196880223D
:1015D000D2020A431A608022D201524B1A60A368D9
:1015E000002B0AD05B080121FF2B0CD94E4A9342F5
:1015F00006D8190A80235B0005E00123022102E0DE
:1016000080235B007F212278D200484812180120F5
:101610001060227850008218D20345481218490001
:101620001160227851008A18D20342495218A078DA
:101630008001617801390843E178C9010843013B21
:101640001902031C0B43136023785A00D318DB03E1
:10165000394A9B181A6802218A431A60A368002B32
:101660000AD023785A00D318DB0333481B181A68B2
:1016700004218A431A6021E023785A00D318DB033F
:101680002D495B18196804220A431A602379002B3C
:101690000AD023785A00D318DB03274A9B181A680C
:1016A00008218A431A6009E023785A00D318DB0323
:1016B00021481B18196808220A431A606379002B15
:1016C00007D023785A00D318DB031C495B18082283
:1016D0001A60A379002B07D023785A00D318DB03B4
:1016E000164A9B1806221A60E379002B07D023784C
:1016F0005A00D318DB0311481B1801221A60237803
:101700005A00D318DB030C495B18196802220A43FC
:101710001A600120BD46B0BD04800440B0400440C2
:101720008080044000E100E0FF7E000094800440DF
:101730001000044000000440040004401400044071
:1017400098B500AF134B144A9A420DD0134B114871
:10175000C01A8008013080000023111C104AD458A0
:10176000CC5004338342FAD10E4B0F4A9A420AD02E
:10177000131C04320B49891A890889005118002268
:1017800004C38B42FCD100200021FFF74BFDBD4676
:1017900098BDC046000000100000001004000010BA
:1017A000482C0000B81800100000001080B500AFF1
:1017B000024B1A6801321A60BD4680BDB418001091
:1017C00080B500AF0722064B1A60064A064B1A6026
:1017D0000023064A1360064A1360BD4680BDC0461A
:1017E00010E000E0FF52070014E000E018E000E025
:1017F000B418001080B500AF0148BD4680BDC0469A
:10180000F42B000080B500AF0148BD4680BDC04646
:10181000242C000080B500AF0148BD4680BDC04605
:101820002C2C000080B500AF0148BD4680BDC046ED
:101830003C2C000000CA9A3B00E1F5058096980018
:1018400040420F00A086010010270000E8030000BE
:10185000640000000A00000001000000000B00000E
:10186000100B00002A0C0000380C0000460C000091
:10187000F40C0000040D0000140D0000240D000005
:10188000340D0000FA0A0000000000000000000013
:10189000003E41554155493E003E7F6B7F6B773E90
:1018A0000022777F7F3E1C0800081C3E7F3E1C08FC
:1018B00000081C2A7F2A081C00081C3E7F3E081CCA
:1018C00000001C3E3E3E1C00FFFFE3C1C1C1E3FF20
:1018D00000001C2222221C00FFFFE3DDDDDDE3FF10
:1018E000000F03053948483000083E081C22221C1E
:1018F0000018141010307060000F19111337766043
:1019000000082A1C771C2A080060787E7F7E786099
:1019100000030F3F7F3F0F0300081C2A082A1C0802
:101920000066666666006666003F65653D050505FE
:10193000000C324824124C3000000000007F7F7FF2
:1019400000081C2A082A1C3E00081C3E7F1C1C1C88
:10195000001C1C1C7F3E1C0800080C7E7F7E0C08AF
:101960000008183F7F3F18080000007070707F7FEC
:10197000000014227F22140000081C1C3E3E7F7FC2
:10198000007F7F3E3E1C1C0800000000000000009D
:1019900000183C3C181800180036361400000000EF
:1019A0000036367F367F363600081E201C023C0883
:1019B0000060660C18306606003C663C2865663F91
:1019C000001818183000000000060C1818180C0633
:1019D00000603018181830600000361C7F1C36007C
:1019E000000008083E0808000000000030303060A9
:1019F000000000003C0000000000000000006060EB
:101A00000000060C18306000003C666E7666663C8E
:101A1000001818381818187E003C66060C30607ED6
:101A2000003C66061C06663C000C1C2C4C7E0C0C14
:101A3000007E607C0606663C003C66607C66663C18
:101A4000007E660C0C181818003C66663C66663C06
:101A5000003C66663E06663C000018180018180038
:101A6000000018180018183000060C1830180C0662
:101A70000000003C003C0000006030180C18306092
:101A8000003C66061C1800180038445C58423C00B4
:101A9000003C66667E666666007C66667C66667C82
:101AA000003C66606060663C007C66666666667CDC
:101AB000007E60607C60607E007E60607C60606054
:101AC000003C6660606E663C006666667E666666C2
:101AD000003C18181818183C001E0C0C0C6C6C38C4
:101AE00000666C7870786C66006060606060607E34
:101AF0000063777F6B6363630063737B6F6763630C
:101B0000003C66666666663C007C6666667C606075
:101B1000003C6666666E3C06007C66667C786C6699
:101B2000003C66603C06663C007E5A18181818187F
:101B3000006666666666663E0066666666663C18B1
:101B4000006363636B7F7763006363361C36636394
:101B5000006666663C181818007E060C1830607E19
:101B6000001E18181818181E00006030180C060007
:101B7000007818181818187800081422410000007E
:101B8000000000000000007F000C0C0600000000B8
:101B90000000003C063E663E006060607C66667C3D
:101BA0000000003C6660663C000606063E66663E37
:101BB0000000003C667E603C001C3630307C3030DB
:101BC00000003E66663E063C006060607C666666BD
:101BD000000018001818183C000C000C0C6C6C3835
:101BE000006060666C786C66001818181818181871
:101BF00000000063777F6B6B0000007C7E6666668A
:101C00000000003C6666663C00007C66667C6060A6
:101C100000003C6C6C3C0D0F0000007C6666606050
:101C20000000003E403C027C000018187E18181886
:101C3000000000666666663E0000000066663C18AE
:101C4000000000636B6B6B3E000000663C183C6656
:101C500000000066663E063C0000003C0C18303C6C
:101C6000000E18183018180E001818180018181838
:101C7000007018180C1818700000003A6C00000072
:101C800000081C366341417FFFFFFF00FFFF00009B
:101C900000FFFF00FF00FF0007000000060000003B
:101CA0000300000002000000050000000400000026
:101CB0000100000000000000001000010000000111
:101CC0000000000045008B0016012C02626C61636D
:101CD0006B0A00006772616469656E740A00000037
:101CE00077686974650A000079656C6C6F770A0023
:101CF0006379616E0A0000006D6167656E74610A48
:101D0000000000007265640A000000000C400440FE
:101D1000104004401C4004402C400440304004402B
:101D2000344004404C400440504004406040044073
:101D300064400440684004407440044078400440DB
:101D40007C40044080400440904004409440044063
:101D5000A0400440A4400440A84004401440044073
:101D6000384004406C40044098400440084004401F
:101D7000284004405C4004408C4004404040044003
:101D800044400440004004402040044024400440BB
:101D90005440044058400440704004408440044093
:101DA000884004409C400440AC4004403C40044017
:101DB0004840044000000000000000000000000057
:101DC000000000000000000000000000E21300001E
:101DD000E2130000D0130000E2130000E213000041
:101DE000E2130000E2130000E2130000E21300001F
:101DF000E2130000E2130000E2130000E21300000F
:101E0000E2130000E2130000E2130000E2130000FE
:101E1000E2130000E2130000E2130000E2130000EE
:101E2000E2130000E2130000E2130000E2130000DE
:101E3000E2130000E2130000E2130000E2130000CE
:101E4000E2130000E2130000E2130000E2130000BE
:101E5000E2130000E213000062130000E21300002E
:101E6000E2130000E2130000E2130000E21300009E
:101E7000E2130000E2130000E2130000E21300008E
:101E8000E2130000E2130000E2130000CC12000095
:101E9000D4120000DC120000E4120000EC1200007A
:101EA000F4120000FC120000041300000C130000E8
:101EB00014130000E2130000E2130000E21300001C
:101EC000E2130000E213000024130000E2130000FC
:101ED000E2130000E2130000E2130000E21300002E
:101EE000E2130000E2130000E2130000E21300001E
:101EF000E2130000E2130000E2130000E21300000E
:101F0000E2130000E2130000E2130000E2130000FD
:101F1000E2130000E2130000E2130000E2130000ED
:101F2000E2130000E2130000E2130000E2130000DD
:101F3000E2130000E2130000E2130000E2130000CD
:101F4000E2130000E2130000E2130000E2130000BD
:101F5000E2130000E2130000E2130000E2130000AD
:101F6000E2130000CA130000E2130000E2130000B5
:101F700036130000E2130000E21300001C130000FF
:101F8000E2130000E2130000E2130000E21300007D
:101F9000E2130000B4130000C4130000E2130000B9
:101FA000E21300003C1300000A0A000020207665BE
:101FB0007273696F6E3A20000A20206275696C6442
:101FC00020646174653A20417567202039203230E1
:101FD00031362031323A30373A333200663A000037
:101FE00020653A0020623A002F0000002C20623A5F
:101FF00000000000FFFFEFFCF89F8EE3EF3C7DDF69
:102000008EE7E3387DEE8EFFE338388E8EE3F338CB
:10201000C3D10EF8F8FE81619EF7E378B8CFFFE3F5
:10202000FFFFFFFFFEFFF73C38FEFFE3F7B97DDE61
:10203000DFF7FF383DDFCEE3E73C3EAE8EEBE73F18
:1020400045DFDF13F7F5499F4213E3B8B8DEFFE33E
:10205000FFFFFFFFFEFFF738388EDFE3E77CFDCEA2
:10206000DEF7EBFE3DCF8EE7F7FD3D9EAEF7F43E8B
:102070004641EFD7F73DFD8D511003C0389EFFE379
:10208000FFFFFFFFFEFFEBFE388EDFF7FB3D388ED4
:10209000FFFBF7FA7ECFBEE3F77C3DEF9FF7F0F949
:1020A0003451CFFFF77CBC7E1D132BF7389FFFE325
:1020B000FFFFFFFFFFFFE7FA388EDFE3E37DBEEFB0
:1020C000CEFBF73B7FCFAFE3F37CBE8FFEE3F37D28
:1020D000C0D08FE3FB7D45CE9F17FB5938CEFFE381
:1020E000FFFFFFFFFEFFE73838EEAFE3EBBE7D9F5B
:1020F000EEF7F33A78CFEFE3E37D3ECECEEFF73D58
:102100000090DFFFEFBABB8E8FDBE338388EFFE342
:10211000FFFFFFFFFEFFEB3F38EE8EE3E3383CAFFF
:10212000AFF7F339BFDEFFEFF77D79DEBFFFF7B81A
:1021300008FE0EC3E338388E8EFF6000380EFFFFB6
:10214000FFFFFFFFFFFFF3FFB8DF8EE3FF3C3DDF44
:10215000FFE7F73D799FFFFFEF383CFE8EE3E33862
:10216000388E0C20FF383FFE80E3E33838FEFFFF57
:10217000FFFFFFFFFFFFFFFFB9CEBFE7E77DB89E80
:102180008EE3FF38388F8EE3E338388E8FE3E3FF3A
:1021900007F07E00FF3FFF0D7C20FF00FF8FFFFF59
:1021A000FFFFFFFFFFFFE3FF3ECECEE7F37B38CE1E
:1021B0008EE3E338388E8FE3FFFF3FFEFFFFFFFF24
:1021C000078071201FF8F7838F3F1FFFFFFFFFFF7E
:1021D000FFFFFFFFFFFFFFFFF8FF8EE3E338388EBE
:1021E0008EE3E338FF8FFFFFE3FF388EFEFFE33817
:1021F000F8FF0FFC20F8C7030FC3FFFFFFFFFFFF2F
:10220000FFFFFFFFFFFFFFFF3FFE8EE3E338388E47
:10221000FFE3FFF8FF8F8EFFFF3FFF8FFEFFE338E6
:10222000F8FF70FCE33FC7F30F00FFFFFFFFFFFF66
:10223000FFFFFFFFFFFFFFFFC7FFFF1FFD38C0F1DC
:102240008F9F7CFFC7017C02FD3800807E83613F49
:10225000078001001CC7C771711CFCC7FF7FFFFF0F
:10226000FFFFFFFFFFFFFFFFFFF1719C1CC7C7715E
:10227000791E9EE7C0717D01C3F0D8FFF77DBEFFD8
:10228000CFF37D1EDDF7D7757D5DDED7FF7FFFFFC6
:10229000FFFFFFFFFFFFFFFFF7F5FBBEBEEFEFFB0A
:1022A000FBBEBEE8CF8BF11C3CCFD7F57DDF5DF7E1
:1022B000D7757D5F9CF7C771FB9EBDC7C771FFFFD8
:1022C000FFFFFFFFFFFFFCC7C7F371DC9EE7E77965
:1022D000791E1CE7E779711C1CC7C771711C1CC7EC
:1022E000C771711C1CC7E77171DE1EC7DFF7FFFFE6
:1022F000FFFFFFFFFFFFF3FC38DF8EE3E338BEAFE5
:10230000CEFBE33879BE8EFFE338388E8EE3E338B8
:1023100000C1BFFFFF3BFDFFDF17E3B8F8FFFFFF82
:10232000FFFFFFFFFEFFE738388ECFE3F7FD7D9E0E
:102330009EF7F3387DDF8EEFFB387FFECEEFF73C64
:1023400045DF5014F73585DF5F1703C0F8EE8FE3E4
:10235000FFFFFFFFFEFFE738388E9FF3F77D3D8ECE
:10236000DEF7EF3B7DDFFEF7F739FDDEBEF7F43B2E
:102370007F50FFD7F7FD3DBD50F4E338F89EFFE3F3
:10238000FFFFFFFFFFFFEFF8388EDFFBEF7D3B8E97
:102390008FFFF73F7FDF8FF3F77DFDFFDFF7F43D22
:1023A000F05EFFE3F77DFD415CF70C08381EFFE3AC
:1023B000FFFFFFFFFFFFE7F8388EDFEFE77DFFBF8E
:1023C0008EEFF73878DFBFE3F77DFB9F8FEFF4BD2B
:1023D00000509FE3FF7D458EDE170F79388E8FE327
:1023E000FFFFFFFFFFFFF7FC38CEFFF3FFFF7DDFAE
:1023F000BEF7F73F78DEBFE3E77D3C8F8EE3F47DE9
:1024000038109FF3E3FF388FCED30338388EFFE3C5
:10241000FFFFFFFFFFFFFFF838FE8EE3E3387DBFCD
:10242000FEF7F73DF8DECEE3F77D7D9FCEFFFBFBA9
:1024300000CE0E23E338388E8EE300383F0EFFE3E4
:10244000FFFFFFFFFFFFE3F8FC9F8EE3E3387DDF34
:10245000CEF7F73979DECEFFE33838CF8EE3E338B5
:1024600000808CE3FF38F88F8EE30338FF8FFFFF87
:10247000FFFFFFFFFFFFE3FFFD8FBEE7F779FBDE06
:102480008EF3F33C38CE8EE3FF38388E8EE3E33F95
:102490003F8EF01FFF3FFF0D03FCE3F8FFFFFFFF40
:1024A000FFFFFFFFFFFFFFFF3CBEFFFBF3B8388ECF
:1024B0008EE3E338388E8EE3E338FF8F8FE3FFFF40
:1024C00007FE7E1C1C38300071E0FFC7FFFFFFFFD6
:1024D000FFFFFFFFFFFFFFFF38FE8EE3E338388E7C
:1024E0008EE3E338F88FFFFFFFF8F8FFFFFFE3F814
:1024F0003F8E0100E3FFC78FF120FFFFFFFFFFFFCB
:10250000FFFFFFFFFFFFFFFF3FFE8EE3E338388E44
:102510008FE3E3F8F88F8FFFFFF8F8FF8EFFFF3FA0
:102520003F8E01E000FFF80171FCFFFFFFFFFFFF9E
:10253000FFFFFFFFFFFFFFFFFFFFFE1FFFFFF88F03
:1025400071601CC7C0710C02E3383FFEF07C1C00B8
:10255000C00171001CC7C771711C1CFFFF7FFFFF0A
:10256000FFFFFFFFFFFFFCFFC77F791E9EE7E779B4
:10257000799E82E70000701C1C002770799EDFE7BF
:10258000D775F77D7FDFFFFFFFFF1CFFFF71FFFFA8
:10259000FFFFFFFFFFFFFCFFFF71F33C3CCFCFF3DA
:1025A000F33C20CFC8F3F33C3CCFDFF7FFFFFFFF46
:1025B000FFFFF7FD7DDFDFF77DFF3FDFC7F1FFFFA7
:1025C000FFFFFFFFFFFF1DC7DF7B799E1CC7C771A1
:1025D000711C1CC7C771719C1CC7C771711C1CC7BB
:1025E000C771711C1CC7C771719C9CC7FFF9FFFFA5
:1025F000FFFFFFFFFFFFF3FB38EE8EE3F3383CCF26
:102600008EF3E338BE8F8EE3E338388E8EE3E33803
:10261000048E8EE3E3383E8E61F8E30038CEFFFF90
:10262000FFFFFFFFFFFFFBF838CE8EE3FB3EBEEF60
:10263000EEFBE338BEEF8EE3F338B88F8EE3FB3862
:10264000BEE1EFFB180E3E61E0F8030038CFFFE378
:10265000FFFFFFFFFEFFFB3C388EEFE3FBBE3E8F2C
:10266000EFFBF338BEEFCFFBFB3E3EEECEFBFB387D
:1026700080E1013818063E02EFFB033838EE8FE3A5
:10268000FFFFFFFFFFFFF3FC388EEFF3E3BE388E52
:10269000CEE3FB38B8EFCFE3FBBE3E8FEEFBF83E58
:1026A0000860411018863E8EE3F8130438EE8FE37D
:1026B000FFFFFFFFFFFFFBFC388EEFE3FBBE388E12
:1026C0008EE3FB3CBCEF8FE3FBBE38EECFE3FB3E7B
:1026D00038EF61000086BE0161F80086380EFFE326
:1026E000FFFFFFFFFEFFFB38388E8EE3E338BEEFBF
:1026F0008EFBFB38B8EF8FE3FBBE388E8FF3FBBE4B
:1027000000EE60001000040000200000380EFFFF03
:10271000FFFFFFFFFFFFE3F8388E8EE3E338BECF05
:102720008EFBFB3E3CEF8FF3FBBEBEEF8EE3F33838
:10273000008080000000000000000300388EFFFFD2
:10274000FFFFFFFFFFFFE3F838EE8EE3F338BEEF45
:102750008EFBFB3EBEEF8EE3F33C388E8EE3E0381B
:10276000000002E01C00070000000338FF8FFFFF9D
:10277000FFFFFFFFFFFFFFFF3E8ECFFBFBBE38EFEB
:102780008EE3E338388E8EE3FF38388E8EE3E338FD
:102790003880F01F1C00C7837000FF07FFFFFFFF9A
:1027A000FFFFFFFFFFFFFFFF388ECFF3E33C388EC4
:1027B0008EE3E338388E8EE3FF38FF8F8FE3E3FF3D
:1027C00007F07E001C38F7717FE0FFC7FFFFFFFFB7
:1027D000FFFFFFFFFFFFFFFF388E8EE3E338388EE9
:1027E0008EE3E338F88FFFE3E3FFFF8F8FFFFFFFF8
:1027F0003FFE7100E3FF00FEF103FFC7FFFFFFFF95
:10280000FFFFFFFFFFFFFFFFF8FF8EE3E338388E87
:102810008EE3FF3FF8FFFFFFE3FFF8FFFEE3FF3F1C
:10282000388E0E001C38F8717F00FFFFFFFFFFFF9E
:10283000FFFFFFFFFFFFFFFFFFFF71E01CC7070067
:10284000711C00C7C0010D02E3FF388E8FE3FFFF4C
:10285000FF8F711C1CC7C771711CFFC7FFFFFFFFF3
:10286000FFFFFFFFFFFFFFFFC7FF711C1CC7C77102
:10287000711C1CC7E00978828220E709799E9EE7D7
:10288000C771711C1CC7C771711C9CC7FF71FFFF0A
:10289000FFFFFFFFFFFF1CFFC7797DDFDFF7F77D3D
:1028A0007DDFDFF7300C7DDFDFF7E779711C1CC7B8
:1028B000C771711C1CC7C771799EDCC7FF71FFFF10
:1028C000FFFFFFFFFFFF1CFFC77D711C1CC7C77107
:1028D000711C1CC7C771711C1CC7C771711C1CC738
:1028E000C771711C1CC7C771711C1FC7C779FFFF57
:1028F000FFFFFFFFFFFFE3F838CE8EE3E338388EAB
:102900008EE3E3383CCF8EF3E338388E8EE3E33842
:10291000008ECE13F33C3CCFC0F3E300388FFFE3CF
:10292000FFFFFFFFFFFFF3F8388E8FE3F33C3CCF50
:10293000CEF3E3383CCF8EF3E3383CCF8EF3F3385D
:1029400004C1CEF3F33C3CCECFF3E300388FFFE37A
:10295000FFFFFFFFFFFFF3F8388ECFE3F33C3C8E21
:10296000CEF3F33C3CCF8EF3F33C3CCFCEF3F33CC1
:102970003CC1CEF3F33C3CCECEF3030038CFFFE3B3
:10298000FFFFFFFFFEFFF338388ECFE3F33C3C8EB2
:102990008EF3F33C3CCF8FE3F33C3CCECEF3F33CE1
:1029A00038C18FE3F33C3C8FCEF3133838CEFFE3CE
:1029B000FFFFFFFFFEFFF338388ECFF3F33C3CCF31
:1029C0008EF3F33838CFCFE3F33C3CCF8EF3F03CBB
:1029D0003840CFE3F33C3C8FCFF3133C388EFFE31A
:1029E000FFFFFFFFFFFFF3F8388ECFE3F33C3CCF50
:1029F000CEF3F33C38CFCFE3F33C388E8FE3F03C9B
:102A00003840CFE3E33C388E8EE30338388EFFE363
:102A1000FFFFFFFFFFFFF3F838CE8EE3E3383CCF34
:102A2000CEF3F33C38CF8FE3F33C3CCF8FF3E03C65
:102A300038008EE3E338388E8EE30338388EFFFF9C
:102A4000FFFFFFFFFFFFE3FF38CF8EE3E3383CCF0C
:102A50008EF3F33C3CCF8EF3E338388E8EE3E338CD
:102A600038808E03E3383FFE8EFF03003F8EFFFF6A
:102A7000FFFFFFFFFFFFE3FF3C8FCFF3F33C3CCFB3
:102A80008EE3E338388E8EE3E33F388E8EE3FF3FEC
:102A900000800FE0FFF83FFE8FE31FC7FFFFFFFF3F
:102AA000FFFFFFFFFFFFFFFF388E8EE3E338388E16
:102AB0008EE3E338388E8EE3E33F388E8EFFFF3FA0
:102AC000C7FFF1FFFFC7CF8F8103FFC7FFFFFFFFE6
:102AD000FFFFFFFFFFFFFFFF38FE8EE3E338388E76
:102AE0008EE3E3383F8E8EFFE33FFFFF8FFFFFFF54
:102AF000C7FFFE1F1C00380001E0FFFFFFFFFFFFC4
:102B0000FFFFFFFFFFFFFFFFF8FF8EE3E338388E84
:102B10008EE3E338FF8FFFFFE3FF3FFE8FFFE3F815
:102B2000388E0000E300078E711CFFFFFFFFFFFFE0
:102B3000FFFFFFFFFFFFFFFFFFFF8EFFE338FFFFF9
:102B4000FFFFFFFFFFFF82FD00000000000000000C
:102B5000C771711C1CC7C771711C1FC7FFFFFFFF26
:102B6000FFFFFFFFFFFFFFFFC7F1711C1CC7C7710D
:102B7000711C00C7007001001CC7C771711C1CC705
:102B8000E779799E9EE7E779799E1CE7FF7FFFFF53
:102B9000FFFFFFFFFFFFFCFFE771799E9EE7E779EC
:102BA000799E82E72708799E9EE7E779799E9EE7DE
:102BB000E779799E9EE7E779711C9EE7FF71FFFF39
:102BC000FFFFFFFFFFFF1EFFE779711C1CC7C771E6
:102BD000711C1CC7C771711C1CC7C771711C1CC735
:102BE000C771711C1CC7C771711C1EC7C771FFFF5D
:102BF000FFFFFFFF537465726E2050696E62616C57
:102C00006C204E6F646520446F74204D617472694E
:102C10007820446973706C617920447269766572BA
:102C200000000000302E312E310000002241756777
:102C30002020392032303136220000002231323A51
:082C400030373A333222000064
:00000001FF
